:020000040800F2
:100000003004002045010008C11200088F090008D3
:10001000BD120008C50400087D140008000000009F
:1000200000000000000000000000000005130008B0
:100030002107000800000000C3120008F1130008A7
:100040005F0100085F0100085F0100085F01000810
:100050005F0100085F0100085F0100085F01000800
:100060005F0100085F0100085F0100085F010008F0
:100070005F0100085F0100085F0100085F010008E0
:100080005F0100085F0100085F0100085F010008D0
:100090005F0100085F0100085F0100085F010008C0
:1000A0005F0100085F0100085F0100085F010008B0
:1000B0005F0100085F0100085F0100085F010008A0
:1000C0005F0100085F0100085F0100085F01000890
:1000D0005F0100085F0100085F0100085F01000880
:1000E0005F0100085F0100085F0100085F01000870
:1000F0005F0100085F0100085F0100085F01000860
:100100005F0100085F0100085F0100085F0100084F
:100110005F0100085F0100085F0100085F0100083F
:100120005F0100085F0100085F0100085F0100082F
:10013000DFF80CD000F078F90048004729160008D5
:10014000300400200648804706480047FEE7FEE7E7
:10015000FEE7FEE7FEE7FEE7FEE7FEE7FEE7FEE777
:10016000F5130008310100082DE9FE4F81EA030470
:1001700004F0004421F0004100944FF0000B23F004
:10018000004350EA01045ED052EA03045BD0C3F39B
:100190000A54C1F30A552C44A4F2F3340194A0FB91
:1001A0000254C1F3130141F48011C3F3130343F468
:1001B000801301FB024400FB034E840A970A44EAC1
:1001C000815447EA8357A4FB076802958D0A05FB13
:1001D00007854FEA932C04FB0C542705029D4FEA38
:1001E000065847EA1637B5EB08056EEB070C870E85
:1001F000920E47EA811742EA8312A7FB0201B6EB8F
:100200000B0164EB00042B0D43EA0C335E1844EB46
:100210001C50DA465146E7FB0201C5F313044FEACE
:100220000B3343EA14534FEA0432019C43EA0603BA
:10023000A4F10C040294009CCDE900B400F0A6F8EF
:1002400003B0BDE8F08F00200146F9E796230022B5
:10025000114600F060B80EB5C10F80EAE0700844A6
:10026000CA07002140F233438DE80E000A460B46D0
:1002700000F08CF803B000BD20F00040C10DC0F3C9
:10028000160040F400007F2901DA0020704796290B
:1002900003DCC1F19601C840704796398840704729
:1002A00001F0004330B421F0004150EA010206D0D1
:1002B0000A0DA2F56072C1F31301002A02DC30BC02
:1002C00000207047440F44EAC104C100E01830BC6C
:1002D00000EBC25000F016B830B50B4601460020C6
:1002E0002022012409E021FA02F59D4205D303FAF8
:1002F00002F5491B04FA02F52844151EA2F1010279
:10030000F1DC30BD0029A8BF7047401C490008BF80
:1003100020F00100704710B4B0FA80FC00FA0CF035
:1003200050EA010404BF10BC704749B1CCF120046D
:1003300021FA04F411FA0CF118BF012121430843FA
:10034000A3EB0C01CB1D4FEA00614FEA102042BF26
:10035000002010BC704700EBC35010440029A4BF1C
:1003600010BC7047401C490008BF20F0010010BCC1
:10037000704710B5002B08DA401C41F100019218BB
:100380005B411A4301D120F0010010BD2DE9F04D71
:1003900092469B4611B1B1FA81F202E0B0FA80F2C6
:1003A0002032904600F052F804460F4640EA0A0018
:1003B00041EA0B0153465A46084313D0114653EA0B
:1003C000010019D0C8F14002504600F04EF8054631
:1003D0000E4650465946424600F038F8084305D0CC
:1003E000012004E020463946BDE8F08D0020054399
:1003F00046EAE0762C4337430A986305E40AA0EB0B
:1004000008000022FD0A44EA47540A3002D50020C1
:100410000146E9E7010510196941DDE908450019C0
:100420006941BDE8F04DA4E7064C074D06E0E068E1
:1004300040F0010394E8070098471034AC42F6D32B
:10044000FFF77AFECC510008EC510008202A04DBAB
:10045000203A00FA02F1002070479140C2F12003D7
:1004600020FA03F3194390407047202A04DB203A16
:1004700021FA02F00021704721FA02F3D040C2F1C4
:1004800020029140084319467047000008B5012139
:10049000042000F027FF4FF48070ADF8000010201A
:1004A0008DF8030003208DF802006946044800F02F
:1004B000D6F94FF48071024800F065FA08BD0000DB
:1004C0000008014000BFFEE708B50121402000F010
:1004D00009FF4020ADF8000010208DF80300032034
:1004E0008DF802006946024800F0B9F908BD000025
:1004F000001801402DE9F05F00F0DAF8442000F028
:10050000E1F800F0D5F8BE2000F0DCF800F0A8F823
:10051000834600F0A5F882464FEA0A2004B244EA76
:100520000B04002C0DDAE043401CFFF794FE074655
:1005300000220F4BFFF718FE0546FFF7B1FE81467C
:100540000BE02046FFF787FE07460022084BFFF727
:100550000BFE0546FFF7A4FE81464846FFF78CFEDA
:10056000C5B22846FFF772FE81464846BDE8F09FB7
:100570000000B03F10B5FFF7A7FF4021034800F08F
:1005800004FA00F07FF800F023F810BD00180140D5
:1005900008B54020ADF8000048208DF803006946FA
:1005A000014800F05CF908BD0018014008B5402082
:1005B000ADF8000010208DF8030003208DF8020034
:1005C0006946024800F04BF908BD000000180140E0
:1005D00010B50024FFF7DCFF04E0601CC4B201206A
:1005E00000F09FF840210F4800F0C4F908B1642CD6
:1005F000F3DB642C01DB012010BD002404E0601C4F
:10060000C4B2012000F08DF84021064800F0B2F994
:1006100008B9F02CF3DBF02C01DB0120ECE7002023
:10062000EAE700000018014010B5FFF7BFFF4021C6
:100630000A4800F0A8F90A2000F073F8FFF7A8FFB5
:100640004021064800F096F9012801D1012400E07C
:1006500000242D2000F065F8204610BD0018014050
:1006600070B50026002408E0FFF7DEFF054605FA16
:1006700004F03043C6B2601CC4B2082CF4DB304630
:1006800070BD000010B5FFF791FF4021074800F052
:100690007AF940F2EE2000F044F84021034800F0DF
:1006A00074F90F2000F03DF810BD00000018014063
:1006B00010B5FFF7E7FFFFF78BFFCC2000F002F843
:1006C00010BD000070B50446FFF770FF002522E062
:1006D00004F00106641076B14021104800F053F98F
:1006E000082000F01EF840210C4800F04EF93A2096
:1006F00000F017F80DE04021084800F044F94620CA
:1007000000F00FF84021054800F03FF9022000F00A
:1007100008F8681CC5B2082DDADB70BD001801406E
:10072000704701B5002106E0052100BF0800A1F1D6
:10073000010291B2FAD10098421E00920028F3D132
:1007400008BD000051B18200A2F1C042126842F01F
:1007500001038200A2F1C042136009E08200A2F10D
:10076000C0421268034B1A408300A3F1C0431A60D1
:1007700070470000FEFF0F00D0E901121143C2686C
:100780001143026911434269114382691143C269ED
:100790001143026A1143426A1143826A1143C26AD9
:1007A0001143026B114302689200A2F1C042116032
:1007B000816808290BD101688900A1F1C04109684D
:1007C00041F0400201688900A1F1C0410A60416B1B
:1007D0000968426B526841EA0211426B926841EA31
:1007E0000221426B928941EA0241426B128A41EA3C
:1007F0000251426B127D41EA0261426B92691143E0
:100800000268521C9200A2F1C0421160C16AB1F5A7
:10081000804F1BD1816B0968826B526841EA0211DB
:10082000826B926841EA0221826B128A41EA02518C
:10083000826B127D41EA0261826B92691143026808
:100840009200A2F1C042C2F8041107E06FF07042BA
:1008500001688900A1F1C041C1F8042170472DE968
:10086000F041024600250026002000230024002736
:1008700091F803C00CF00F0591F803C00CF0100CB8
:10088000BCF1000F03D091F802C04CEA050591F8C5
:1008900000C0BCF1000F31D0146800202BE04FF0F5
:1008A000010C0CFA00F3B1F800C00CEA03069E42FA
:1008B00020D183004FF00F0C0CFA03F7BC4305FA6C
:1008C00003FC4CEA040491F803C0BCF1280F06D1E4
:1008D0004FF0010C0CFA00FCC2F814C00AE091F8C9
:1008E00003C0BCF1480F05D14FF0010C0CFA00FC1D
:1008F000C2F810C0401C0828D1D31460B1F800C061
:10090000BCF1FF0F34DD546800202EE000F1080C2C
:100910004FF0010808FA0CF3B1F800C00CEA030626
:100920009E4221D183004FF00F0C0CFA03F7BC4319
:1009300005FA03FC4CEA040491F803C0BCF1280F4B
:1009400005D100F1080C08FA0CF8C2F8148091F8EF
:1009500003C0BCF1480F07D100F1080C4FF00108AB
:1009600008FA0CF8C2F81080401C0828CED3546056
:10097000BDE8F0810246002093680B400BB10120D6
:1009800000E000207047416170470161704700BF7F
:10099000FEE7000010B504462CB14FF48051054825
:1009A000FFF7F1FF04E04FF480510248FFF7EDFF3D
:1009B00010BD0000001401402DE9F04106460F462D
:1009C00014461D462B4622463946304600F084FA2E
:1009D00004FB05F00249098800F0F1F8BDE8F08158
:1009E0002A00002001B502E00098401E0090009807
:1009F0000028F9D108BD00002DE9F05F8046894646
:100A00001646A6F120001FFA80FA1E490968898857
:100A10001C4A1268D28801FB02F0C11700EB517129
:100A2000C1F3C7071748006800680AFB070B1548A1
:100A30000068C3881348006882884946404600F031
:100A40004BFA2C2000F0A4FB002416E0002510E057
:100A50001BF8040080212941084020B10A48008881
:100A600000F09AFB03E00948008800F095FB681C41
:100A7000C5B2082DECDB601CC4B2BC42E6DBBDE8AD
:100A8000F09F000024000020280000202A00002001
:100A900070B504460D46002624E030461349096827
:100AA0008988084412490988884205DD00260F48D4
:100AB0000068C088204484B220460C490968C9886F
:100AC00008440C490988884201DD002600242A7860
:100AD00021463046FFF790FF6D1C0448006880886F
:100AE000304486B228780028D7D170BD2400002079
:100AF0001C0000201E00002070B505460E4614465E
:100B000024E028461349096889880844124909885D
:100B1000884205DD00250F480068C088304486B251
:100B200030460C490968C98808440C49098888423C
:100B300001DD00250026227831462846FFF75CFFBC
:100B4000641C044800688088284485B22078002806
:100B5000D7D170BD240000201C0000201E00002002
:100B600000B597B00121080200F0ACFB0120019014
:100B700004200390800607900020029004900590C6
:100B800006900890099008200A9010200B900020F1
:100B90000C900E900F9010904FF480501190002008
:100BA00012901390149001A81590169008A8FFF7C2
:100BB000E3FD01210020FFF7C5FD17B000BD70B5B2
:100BC00004460D4600262C2000F0E2FA00BF03E0A8
:100BD000284600F0E1FA761CA642F9D370BD000069
:100BE00008B50121602000F07DFB03208DF8020094
:100BF00018208DF803004FF48040ADF800006946DE
:100C00005B48FFF72CFE4FF40040ADF8000069464A
:100C10005748FFF724FE0120ADF80000694654480C
:100C2000FFF71DFE0220ADF8000069465048FFF7AF
:100C300016FE8020ADF8000069464E48FFF70FFE13
:100C40004FF48070ADF8000069464A48FFF707FE90
:100C50004FF40070ADF8000069464648FFF7FFFD0D
:100C60004FF48060ADF8000069464248FFF7F7FD99
:100C70004FF40060ADF8000069463E48FFF7EFFD15
:100C80004FF48050ADF8000069463A48FFF7E7FDA1
:100C90004FF40050ADF8000069463648FFF7DFFD1D
:100CA0004FF48040ADF8000069463248FFF7D7FDA9
:100CB0004FF40040ADF8000069462E48FFF7CFFD25
:100CC0004FF48070ADF8000069462948FFF7C7FD72
:100CD0004FF40070ADF8000069462548FFF7BFFDEE
:100CE0004FF48060ADF8000069462148FFF7B7FD7A
:100CF00003208DF8020018208DF803001020ADF8B5
:100D0000000069461A48FFF7AAFD2020ADF8000050
:100D100069461748FFF7A3FD8020ADF8000069463B
:100D20001348FFF79CFD4FF40060ADF800006946E2
:100D30000F48FFF794FD10208DF8030003208DF875
:100D400002000220ADF8000069460A48FFF787FD5F
:100D500010208DF8030003208DF802004FF480501E
:100D6000ADF8000069460248FFF779FD08BD0000B4
:100D7000001401400018014010B50446072C00DDA6
:100D800010BD28480470204604EBD0714910A4EB34
:100D9000410139B9F020244908804FF4A07023495B
:100DA000088006E04FF4A0701F490880F0201F491A
:100DB0000880362000F0ECF9082141EA441000F0E8
:100DC000EBF92A2000F0E4F9002000F0E5F900201A
:100DD00000F0E2F914490988491EC1F3072000F028
:100DE000DBF911490978491EC8B200F0D5F92B206A
:100DF00000F0CEF9002000F0CFF9002000F0CCF98F
:100E00000A490988491EC1F3072000F0C5F90749BE
:100E10000978491EC8B200F0BFF92C2000F0B8F9DB
:100E200000BFADE7200000201C0000201E000020B5
:100E300010B5FFF7D5FEFFF793FE0120FFF7AAFDDF
:100E400000F092F900F078F815480078FFF794FF69
:100E5000144803881448028800210846FFF7ACFDB7
:100E6000124800F005FA00F0F3F9C48810A12046FA
:100E7000FFF70EFE00F0ECF9C08800EB800084B2B2
:100E80000FA12046FFF704FE00F0E2F9C08800EB56
:100E900040004004040C0DA12046FFF7F9FD10BDF1
:100EA000200000201E0000201C0000200C0000205C
:100EB0002020536D6172742054656D700000000035
:100EC00054656D70203A2020202043005761726ED7
:100ED000203A2020202043002DE9F04104460D4611
:100EE00016461F462A2000F053F9201200F054F94C
:100EF000E0B200F051F9A119491EC1F30F2000F032
:100F00004BF9A119491EC8B200F046F92B2000F098
:100F10003FF9281200F040F9E8B200F03DF9E91974
:100F2000491EC1F30F2000F037F9E919491EC8B274
:100F300000F032F9BDE8F08110B5CF2000F028F9BB
:100F4000002000F029F9812000F026F9302000F07F
:100F500023F9ED2000F01CF9642000F01DF90320B6
:100F600000F01AF9122000F017F9812000F014F9AE
:100F7000E82000F00DF9852000F00EF9102000F0B7
:100F80000BF9782000F008F9CB2000F001F93920A6
:100F900000F002F92C2000F0FFF8002000F0FCF82F
:100FA000342000F0F9F8022000F0F6F8F72000F005
:100FB000EFF8202000F0F0F8EA2000F0E9F8002037
:100FC00000F0EAF8002000F0E7F8B12000F0E0F8C7
:100FD000002000F0E1F81B2000F0DEF8B62000F061
:100FE000D7F80A2000F0D8F8A22000F0D5F8C020E9
:100FF00000F0CEF8352000F0CFF8C12000F0C8F89E
:10100000112000F0C9F8C52000F0C2F8452000F01A
:10101000C3F8452000F0C0F8C72000F0B9F8A220BE
:1010200000F0BAF8F22000F0B3F8002000F0B4F8B5
:10103000262000F0ADF8012000F0AEF8E02000F02E
:10104000A7F80F2000F0A8F8262000F0A5F824202B
:1010500000F0A2F80B2000F09FF80E2000F09CF8A2
:10106000092000F099F8542000F096F8A82000F02C
:1010700093F8462000F090F80C2000F08DF817202F
:1010800000F08AF8092000F087F80F2000F084F8BB
:10109000072000F081F8002000F07EF8E12000F049
:1010A00077F8002000F078F8192000F075F81B2080
:1010B00000F072F8042000F06FF8102000F06CF8D7
:1010C000072000F069F82A2000F066F8472000F0B9
:1010D00063F8392000F060F8032000F05DF8062086
:1010E00000F05AF8062000F057F8302000F054F8CD
:1010F000382000F051F80F2000F04EF8362000F0B4
:1011000047F8C82000F048F82A2000F041F80020F5
:1011100000F042F8002000F03FF8002000F03CF81A
:10112000EF2000F039F82B2000F032F8002000F01A
:1011300033F8002000F030F8012000F02DF83F20B7
:1011400000F02AF83A2000F023F8552000F024F8A7
:10115000112000F01DF80348FFF744FC292000F09F
:1011600017F810BDFCBF020010B502210748FFF7B9
:101170000AFC40F6FF20FFF735FC02210348FFF789
:1011800004FC40F6FF20FFF72DFC10BD00180140C5
:101190004FF0C04108807047014908807047000047
:1011A0000000026010B501210C4800F03DF8012854
:1011B00004D10B480078401C094908704FF40051D5
:1011C000084800F031F8012804D105480078401E95
:1011D000034908700248007810BD00000008014073
:1011E000000000200010014008B50121142000F08B
:1011F00079F80120ADF8000028208DF80300694639
:101200000748FFF72CFB4FF40050ADF800002820F2
:101210008DF8030069460348FFF721FB08BD000075
:10122000000801400010014070B504460D462946F3
:101230002046FFF79FFB012808D100BF2946204622
:10124000FFF798FB0128F9D0012070BD0020FCE7D2
:10125000014800687047000024000020024A108006
:10126000024A118070470000280000202A00002058
:101270000149086070470000240000207CB5044646
:101280000D4622460CA101A800F0FAF82A460AA150
:10129000684600F0F5F81F214FF6E070FFF7DEFF1B
:1012A00001AA78217020FFF727FC6A469021702060
:1012B000FFF722FC7CBD00002564000000BFFEE7B4
:1012C0007047704729B1064A52690243044B5A617C
:1012D00004E0034A52698243014B5A61704700009F
:1012E0000010024029B1064A92690243044B9A61F8
:1012F00004E0034A92698243014B9A6170470000FF
:1013000000100240704710B500F002F810BD000058
:101310000CB50020019000903348006840F4803004
:101320003149086000BF3048006800F40030009088
:101330000198401C0190009818B90198B0F5A06F71
:10134000F1D12948006800F4003010B1012000906C
:1013500001E0002000900098012843D12348006854
:1013600040F01000214908600846006820F00300A2
:1013700008600846006840F0020008601A484068AB
:10138000194948600846406848600846406840F48B
:10139000806048600846406820F47C104860084639
:1013A000406840F4E81048600846006840F08070EB
:1013B000086000BF0C48006800F000700028F9D0F9
:1013C0000948406820F00300074948600846406823
:1013D00040F00200486000BF0348406800F00C0085
:1013E0000828F9D10CBD0000001002400020024086
:1013F0007047000010B51348006840F00100114923
:10140000086008464068104908400E494860084690
:1014100000680E4908400B4908600846006820F43F
:10142000802008600846406820F4FE0048604FF4C1
:101430001F008860FFF767FF4FF0006004490860F5
:1014400010BD0000001002400000FFF8FFFFF6FE94
:1014500008ED00E070B505460C46A54205DD4FF4E9
:1014600080710548FFF791FA04E04FF4807102485B
:10147000FFF789FA70BD00000008014000BFFEE7D9
:101480000FB4084B10B504A902AA039800F01CF889
:10149000044602A9002000F0C1F8204610BC5DF807
:1014A00014FB00001D16000802E008C8121F08C146
:1014B000002AFAD170477047002001E001C1121FD5
:1014C000002AFBD1704700002DE9FF4F89B09B46F1
:1014D0000446002506E025280BD05A460B99904774
:1014E000641C6D1C20780028F5D10DB02846BDE89D
:1014F000F08F0027B8460122474900E0074314F85F
:10150000013F203B02FA03F00842F7D120782E2851
:1015100019D114F8010F47F004072A280ED06FF0F4
:101520002F022078A0F1300109290CD808EB88019E
:1015300002EB410100EB0108641CF2E70A98641C0D
:1015400050F8048B0A9020780028CED0642808D068
:10155000692806D075281ED05A460B9990476D1CF5
:1015600058E00A994FF00A0901C90A91002802DAE5
:1015700040422D2102E0390504D52B218DF82010A1
:10158000012103E0F90704D02021F7E78A4608AEDD
:101590000DE00021FAE70A994FF00A0901C90A9102
:1015A000F7E74946FEF798FE303106F8011D00289E
:1015B000F7D1ADEB060000F12009780701D44FF018
:1015C0000108C84502DDA8EB090000E000208046C4
:1015D000002706E008A85A46C05D0B9990476D1C8D
:1015E0007F1C5745F6DB04E030205A460B999047A4
:1015F0006D1CB8F10001A8F10108F5DC05E016F852
:10160000010B5A460B9990476D1CB9F10001A9F1E5
:101610000109F4DC641C65E7092801000A68531C11
:101620000B601070704700000024FFF7DDFDFFF72E
:10163000FFFBFEF79FFFFEF729FF13E0FEF75AFFBF
:101640000646FEF719FEC4B2FFF7ACFD0546294673
:101650002046FFF713FE29462046FFF7FBFE02480F
:10166000FFF75FF8EAE7000020A107000000000094
:101670000000000000000000000000000000001852
:101680001818181818080008180000000000003486
:1016900024242400000000000000000000000000DE
:1016A00016247F2424247E24240000000000000847
:1016B0003E6848681C1612127C1010000000006181
:1016C000D296740810162949C600000000000000D8
:1016D0003C646438724ACE467F0000000000001867
:1016E00018181800000000000000000000000004AE
:1016F000081810303030301010180C040000002092
:101700001008080C0404040C08181020000000083D
:101710000A341C6A080000000000000000000000FD
:1017200000001818187F18181800000000000000AA
:101730000000000000000018180830000000000041
:1017400000000000003C000000000000000000005D
:101750000000000000000018180000000000000257
:1017600006040C08081010202040000000000000B3
:101770003C6642475B7342663C000000000000008C
:1017800018784808080808087E00000000000000DB
:101790003C460606040810207E0000000000000001
:1017A0007C0606043C0202067C00000000000000EB
:1017B0000C1C14246444FF0404000000000000001A
:1017C0007E6060607E0202067C0000000000000077
:1017D0001E306048764242623C000000000000007B
:1017E0007E0206040C081810300000000000000003
:1017F0003C6242361C6642423C0000000000000091
:101800003C664242661A02047800000000000000B4
:101810000000181800000018180000000000000068
:101820000000181800000018180830000000000020
:10183000000004183060100C0600000000000000DA
:10184000000000007E007E0000000000000000009C
:101850000000301804060C102000000000000030CA
:101860001C06060618100010100000000000001CE6
:10187000224141DDB5A5A5AF94C0403C0000000069
:10188000181C342426627E43C100000000000000C2
:101890007C4642467C4242427C0000000000000040
:1018A0001E204040404040603E000000000000001C
:1018B0007C4642434343424678000000000000005B
:1018C0007E6060607E6060607E000000000000005E
:1018D0007E6060607E60606060000000000000006C
:1018E0001E604040CE4242623E0000000000000008
:1018F000424242427E42424242000000000000005A
:101900007E181818181818187E0000000000000033
:101910007C04040404040444780000000000000077
:101920004244485070584C444200000000000000FF
:1019300020202020202020203E0000000000000069
:101940006266675F5B5BC1C1C10000000000000010
:10195000626272525A4A4E46460000000000000081
:101960003C6243C3C3C343623C000000000000006C
:101970007C464242467840404000000000000000A3
:101980003C6243C3C3C343623C180F000000000025
:101990007C6662667C6C6466620000000000000089
:1019A0003E6040601C0602027C0000000000000057
:1019B0007F181818181818181800000000000000E8
:1019C00042424242424242623C00000000000000AB
:1019D000C14342622624341C1800000000000000AD
:1019E000C1C141495B5B76666600000000000000F3
:1019F00043663418181C2466C30000000000000071
:101A0000C14266341C1818181800000000000000BD
:101A10007E02040C181020607E0000000000001CF4
:101A200010101010101010101010101C00000040AA
:101A30002020101008080C04060200000000003CE2
:101A40000C0C0C0C0C0C0C0C0C0C0C3C00000000D6
:101A5000181C2462000000000000000000000000CC
:101A60000000000000000000000000FF0000002057
:101A70001000000000000000000000000000000056
:101A800000003C06023E42467A0000000000004092
:101A900040405C62424242427C0000000000000084
:101AA00000001E20604060203E0000000000000298
:101AB00002023E62424242663A000000000000001C
:101AC00000003C62427E40603E0000000000000FCB
:101AD0001810107E10101010100000000000000000
:101AE00000003F66426658403E43423C00000040D2
:101AF00040405C6242424242420000000000001846
:101B000018007808080808087E000000000000049B
:101B10000C007C040404040404040C78000000603D
:101B20006060626C78706864620000000000007899
:101B300008080808080808087E00000000000000E7
:101B40000000764B4B4B4B4B4B000000000000005D
:101B500000005C624242424242000000000000007D
:101B600000003C62424342623C0000000000000072
:101B700000005C62424242427C4040400000000063
:101B800000003E62424242663A0202020000000049
:101B900000006E7263606060600000000000000082
:101BA00000003E20203C06027C00000000000000F7
:101BB0001010FE10101010101E0000000000000099
:101BC00000004242424242663A000000000000002B
:101BD0000000434266243418180000000000000092
:101BE0000000C1C15B5A5E66660000000000000094
:101BF000000062261C181C26620000000000000085
:101C0000000043426624341C181830E00000000035
:101C100000007E060C1810207E0000000000000E60
:101C200018101010307010101010180E0000080856
:101C30000808080808080808080808080000003014
:101C4000180808080C0E08080808183000000000E2
:101C500000000000714B06000000000000000000C2
:101C60000000000000000000000000000000000074
:101C70000000000000000000000000000000000064
:101C80000000000000000000000000000000000054
:101C900000000000000003800180018001800180BD
:101CA000018001800180018001800000000003C0EC
:101CB00003C0000000000000000000000000000061
:101CC0000000000000000E700E700E700C3000005E
:101CD0000000000000000000000000000000000004
:101CE00000000000000000000000000000000000F4
:101CF00000000000000000000618063806307FFED5
:101D00000C300C300C300C307FFE0C601C60186006
:101D1000186000000000000000000000000000004B
:101D20000000000000C000C00FF83CC831C0318086
:101D30003D801F8003F001F8031C030C031C3FF8D7
:101D40003FE0070006000000000000000000000067
:101D5000000000001C007E0E630C631863307E6080
:101D600000C001800300077C0EE61CC618C630C602
:101D7000607C000000000000000000000000000087
:101D80000000000000000FE01CF0387038701C608C
:101D90001FC00F003F8C71CC60EC607C70383CFC45
:101DA0001FCE000000000000000000000000000046
:101DB00000000000000003C00180018001800000DD
:101DC0000000000000000000000000000000000013
:101DD0000000000000000000000000000000000003
:101DE00000000000003000E001C001800300070097
:101DF000060006000E000E000E000E000600070092
:101E00000300038001C000E000300000000000007B
:101E1000000000000C0006000380018001C000E00B
:101E2000006000600070007000700060006000E002
:101E300000C00180038006000C00000000000000CC
:101E4000000000000000018011881DB803C007E0F9
:101E50003DBC01880180000000000000000000007F
:101E60000000000000000000000000000000000072
:101E70000000000000000000000000000180018060
:101E80000180018001807FFE01800180018001804E
:101E90000000000000000000000000000000000042
:101EA0000000000000000000000000000000000032
:101EB00000000000000000000000000003C003C09C
:101EC00001C001C003801F000000000000000000EE
:101ED0000000000000000000000000000000000002
:101EE0000000000000000FF00000000000000000F3
:101EF00000000000000000000000000000000000E2
:101F000000000000000000000000000000000000D1
:101F100000000000000000000000000003C003C03B
:101F200003C00000000000000000000000000000EE
:101F3000000000000000001800380030006000E0E1
:101F400000C001C001800300030006000E000C0069
:101F50001C0018003000000000000000000000001D
:101F600000000000000001800FF01C38381C301CFD
:101F7000707E70EE738E7E0E7C0C300C381C1E78DA
:101F80000FE0000000000000000000000000000062
:101F9000000000000000000007C01FC039C001C0E1
:101FA00001C001C001C001C001C001C001C03FFCAF
:101FB0003FFC0000000000000000000000000000E6
:101FC00000000000000003801FF0183800380018DF
:101FD00000380038007001E0038007001C003FFC5F
:101FE0003FFC0000000000000000000000000000B6
:101FF00000000000000007801FF0003800380038A3
:10200000003007E007F00038001C001C001820F822
:102010003FE00000000000000000000000000000A1
:10202000000000000000000000F001B003300730A5
:102030000E301C30383070307FFE7FFE00300030B4
:102040000030000000000000000000000000000060
:1020500000000000000000001FF818001800180021
:1020600018001FE000F8001C001C001C003800F0E5
:102070001FC0000000000000000000000000000081
:10208000000000000000000003F80F001C00180012
:10209000300037F83C3C300C300C380C381C1E3803
:1020A0000FF0000000000000000000000000000031
:1020B00000000000000000003FFC001C0018003879
:1020C0000070006000E001C001800380070006008E
:1020D0000E000000000000000000000000000000F2
:1020E00000000000000003C01FF8381C381C381C1A
:1020F0001C380FF007F01C78381C300C381C3C38AA
:102100000FF00000000000000000000000000000D0
:1021100000000000000003801FF03838301C701CE5
:10212000700C380C1FFC0FCC001C001800701FE056
:102130001F80000000000000000000000000000000
:10214000000000000000000000000000000003C0CC
:1021500003C00180000000000000000003C003C0B5
:1021600003C00000000000000000000000000000AC
:10217000000000000000000000000000000003C09C
:1021800003C00180000000000000000003C003C085
:1021900001C001C003800F0000000000000000002B
:1021A000000000000000000000000000003800F007
:1021B00001C007001E0038000E00078001C000703B
:1021C00000300000000000000000000000000000DF
:1021D00000000000000000000000000000000000FF
:1021E00000003FFC000000003FFC3FFC000000003E
:1021F00000000000000000000000000000000000DF
:102200000000000000000000000000001C000F00A3
:10221000038001E00078001C007001E003800E00E4
:102220000C000000000000000000000000000000A2
:102230000000000000000FC000F000380038003837
:10224000003803F003800300030000000000078053
:1022500007800000000000000000000000000000F7
:102260000000000000E007F80C0C180630067003B0
:1022700063F36633C673CC63CC62CC66CCE6C7FC32
:10228000E0006000700038101FF000000000000047
:10229000000000000000000003C007E006E00E7030
:1022A0000E700C301C3818183FFC3FFC700E600E8E
:1022B000E007000000000000000000000000000037
:1022C00000000000000000003FF03838381C381CC7
:1022D00038383FF03FF8381C380C380C381C3FF8C1
:1022E0003FE00000000000000000000000000000CF
:1022F00000000000000000E007FC1E043800380069
:102300003000700070007000300038003C001F9CEE
:1023100007FC0000000000000000000000000000BA
:1023200000000000000000003FF03078301C300C4E
:10233000300E300E300E300E300E301C30383FF084
:102340003FC000000000000000000000000000008E
:1023500000000000000000001FF81800180018001E
:1023600018001FF81FF818001800180018001FF8B0
:102370001FF8000000000000000000000000000046
:1023800000000000000000001FF8180018001800EE
:1023900018001FF81FF8180018001800180018007F
:1023A0001800000000000000000000000000000015
:1023B00000000000000000F007FC1E0438003000A0
:1023C0007000700070FC700C700C300C380C1F1C0E
:1023D00007FC0000000000000000000000000000FA
:1023E0000000000000000000300C300C300C300CFD
:1023F000300C3FFC3FFC300C300C300C300C300CFF
:10240000300C000000000000000000000000000090
:1024100000000000000000003FFC018001800180FE
:1024200001800180018001800180018001803FFCEA
:102430003FFC000000000000000000000000000061
:1024400000000000000000001FF0003000300030ED
:1024500000300030003000300030003000701DE0EF
:102460001FC000000000000000000000000000008D
:102470000000000000000000381C387038E039C04F
:102480003B803F003F003B8039C038E0387038382F
:10249000381C0000000000000000000000000000E8
:1024A00000000000000000001C001C001C001C00BC
:1024B0001C001C001C001C001C001C001C001FFC3D
:1024C0001FFC0000000000000000000000000000F1
:1024D0000000000000000000381C7C3C6C3E6E6E6A
:1024E000666E66CE63C663866186600660066006B9
:1024F0006006000000000000000000000000000076
:1025000000000000000000003C0C3C0C3E0C360CAF
:10251000330C338C318C31CC30EC306C307C303C33
:10252000301C00000000000000000000000000005F
:1025300000000000000001C00FF81C3C381C700EA9
:10254000700E60066006700E700E700C381C1E78DF
:102550000FE000000000000000000000000000008C
:1025600000000000000000003FF0383C381C380C30
:10257000380C381C38783FE0380038003800380014
:102580003800000000000000000000000000000013
:1025900000000000000001C00FF81C3C381C700E49
:1025A000700E60066006700E700E700C381C1E787F
:1025B0000FE0018001C000FF003C000000000000AF
:1025C00000000000000000003FF0383838183818CC
:1025D000383838F03FC038E0387038383838381C70
:1025E000380E0000000000000000000000000000A5
:1025F00000000000000001E00FF83800380038004B
:102600003C001F8003F00078001C001C001C387880
:102610003FE000000000000000000000000000009B
:1026200000000000000000007FFE018001800180AA
:102630000180018001800180018001800180018092
:102640000180000000000000000000000000000009
:102650000000000000000000300C300C300C300C8A
:10266000300C300C300C300C300C300C381C1C385A
:102670000FF000000000000000000000000000005B
:102680000000000000000000E006700E700E381C14
:10269000381C1C181C380C300E70066007E003C094
:1026A00003C0000000000000000000000000000067
:1026B0000000000000000000600660066006600682
:1026C0006186638673C673CE766C366C3C3C3C3C4C
:1026D000381C0000000000000000000000000000A6
:1026E0000000000000000000301C38181C380E707C
:1026F00007E003C003C007E00E701C381838381C10
:10270000700E00000000000000000000000000004B
:102710000000000000000000700E700C381C1C3817
:102720000E70066007E003C0018001800180018017
:102730000180000000000000000000000000000018
:1027400000000000000000003FFC001C003800708A
:1027500000E001C0038007000E000C0018003FFCE1
:102760003FFC00000000000000000000000000002E
:102770000000000007F007F0060006000600060053
:102780000600060006000600060006000600060019
:10279000060006000600060007F00000000000002A
:1027A00000000000000018001C000C0006000700DC
:1027B00003000380018001C000C000600070003091
:1027C00000380018000C00000000000000000000AD
:1027D000000000000FE00FE000600060006000609B
:1027E00000600060006000600060006000600060E9
:1027F00000600060006000600FE00000000000006A
:10280000000000000000000003C006C006600C309D
:102810001818301C0000000000000000000000003C
:1028200000000000000000000000000000000000A8
:102830000000000000000000000000000000000098
:102840000000000000000000000000000000000088
:102850000000000000000000FFFF0000000000007A
:102860000000000000001E000380000000000000C7
:102870000000000000000000000000000000000058
:102880000000000000000000000000000000000048
:1028900000000000000000000000000000001FF029
:1028A0001038001C001C0FFC1C1C381C381C3CFC85
:1028B0001FDC00000000000000000000000000001D
:1028C00000000000000038003800380038003BF8F5
:1028D0003E1C3C1C380C380C380C380C381C3C782E
:1028E0001FE00000000000000000000000000000E9
:1028F000000000000000000000000000000007F8D9
:102900000E001C0038003800380038001C000F187A
:1029100007F80000000000000000000000000000B8
:10292000000000000000001C001C001C001C0FFC2C
:102930001C1C381C301C301C301C301C383C1CFC4F
:102940000F9C0000000000000000000000000000DC
:1029500000000000000000000000000000000FF078
:102960001C38381C300C3FFC3000300038001E0C86
:1029700007FC000000000000000000000000000054
:1029800000000000003C01FE038003000300030080
:102990007FFC7FFC0300030003000300030003002F
:1029A0000300000000000000000000000000000024
:1029B00000000000000000000000000000000FFE0A
:1029C0001C383818381818381FF03B8030003FF09A
:1029D0001FFC300E700E381C1FF8000000000000B5
:1029E00000000000000038003800380038003BF8D4
:1029F0003E383C1C381C381C381C381C381C381C11
:102A0000381C000000000000000000000000000072
:102A100000000000018003C003C0000000001FC0D0
:102A200001C001C001C001C001C001C001C001C09E
:102A30003FFC00000000000000000000000000005B
:102A400000000000002000700070000000003FF057
:102A500000700070007000700070007000700070F6
:102A600000700070007020E03FC000000000000017
:102A70000000000000001800180018001800183CA2
:102A8000187018E01B801F001B8019E018701838A0
:102A9000181C000000000000000000000000000002
:102AA0000000000000001FC001C001C001C001C043
:102AB00001C001C001C001C001C001C001C001C00E
:102AC0003FFC0000000000000000000000000000CB
:102AD00000000000000000000000000000006F3C4B
:102AE00079EE71CE718E718E718E718E718E718E46
:102AF000718E0000000000000000000000000000D7
:102B000000000000000000000000000000003BF892
:102B10003E383C1C381C381C381C381C381C381CEF
:102B2000381C000000000000000000000000000051
:102B300000000000000000000000000000000FF096
:102B40001C3C381C700E700E700E700C381C1E78F9
:102B50000FE0000000000000000000000000000086
:102B600000000000000000000000000000003BF832
:102B70003E1C3C1C380C380C380C380C381C3C788B
:102B80003FE0380038003800380000000000000046
:102B900000000000000000000000000000000FFC2A
:102BA0001C1C381C301C301C301C301C383C1CFCDD
:102BB0000F9C001C001C001C001C000000000000FA
:102BC000000000000000000000000000000019F8F4
:102BD0001F1C1C0C180E18001800180018001800F4
:102BE00018000000000000000000000000000000CD
:102BF00000000000000000000000000000000FF8CE
:102C00001C0018001E000FC001F80018001818382A
:102C10001FF00000000000000000000000000000A5
:102C200000000000000000000600060006007FFC17
:102C300006000600060006000600060007000784DE
:102C400001FC000000000000000000000000000087
:102C50000000000000000000000000000000381C20
:102C6000381C381C381C381C381C381C383C1CFCE0
:102C70000FDC000000000000000000000000000069
:102C80000000000000000000000000000000700CC8
:102C9000381C38181C380C300E70066007E003C072
:102CA00003C0000000000000000000000000000061
:102CB00000000000000000000000000000006006AE
:102CC00060066186738E73CC33CC366C366C3C3CBC
:102CD0003C38000000000000000000000000000080
:102CE0000000000000000000000000000000381C90
:102CF0001C380E7007E003C003C007E00E701C38DC
:102D0000381E00000000000000000000000000006D
:102D10000000000000000000000000000000700C37
:102D2000381C38181C380C300E70066007E003C0E1
:102D300003C0038007000E007C00000000000000BC
:102D400000000000000000000000000000001FF86C
:102D50000038007000E001C0038007000C001FFC79
:102D60003FFC000000000000000000000000000028
:102D700000000000007801F80380038003800380D6
:102D8000038003003F003E000300038003800380B4
:102D900003800380038001C000F8000000000000F1
:102DA000018001800180018001800180018001801B
:102DB000018001800180018001800180018001800B
:102DC000018001800180018001800000000000007E
:102DD000000000001E001F80018001C001C001C072
:102DE00001C000C000FC007C00C001C001C001C0E7
:102DF00001C001C001C003801F00000000000000EE
:102E000000000000000000000000000000000000C2
:102E100000001C003F0671CE60FC000000000000B6
:102E200000000000000000000000000000000000A2
:102E30000000000000000000000000000000000092
:102E40000000000000000000000000000000000082
:102E50000000000000000000000000000000000072
:102E60000000000000000000000000000000000062
:102E70000000000000000000000000000000000052
:102E80000000000000000000000000000000000042
:102E90000000000000000000000000000000003CF6
:102EA00000003C00003C00003C00003C00003C00F6
:102EB000003C00003C00003C00003C00003C0000E6
:102EC0003C00003C00003C00000000000000003C12
:102ED00000007E00003C0000000000000000000038
:102EE00000000000000000000000000000000000E2
:102EF000000000000000000000000000000003C30C
:102F0000E003C3E003C3C003C3C003C3C003C3C023
:102F100003C1C0000000000000000000000000002D
:102F200000000000000000000000000000000000A1
:102F30000000000000000000000000000000000091
:102F40000000000000000000000000000000000081
:102F50000000000000000000000000000000000071
:102F60000000000001E0E001C0E001C0E001C0E0BD
:102F70003FFFFE3FFFFE03C1C00381C00381C003CA
:102F800081C07FFFFC7FFFFC07838007038007036E
:102F90008007038007078000000000000000000099
:102FA0000000000000000000000000000000000021
:102FB0000000000000000000000000000700000FFB
:102FC00000000E0001FFF007FFF01F0E001E1E00A4
:102FD0001E1C001E1C000FDC0007FC0000FF800010
:102FE0003FF00038F800387800783C007078307195
:102FF000F83FFFE01FFF0000E00000E00000E000FD
:1030000000000000000000000000000000000000C0
:1030100000000000000000000000000000000F8021
:103020000F3FE01E78703C7070707070E07071C07F
:103030003FE3801FC700000E00001C000078000066
:10304000F0F001E7FC03CF0E078E0E0F0E0E1E0EE2
:103050000E3C07BC7003F8000000000000000000F8
:103060000000000000000000000000000000000060
:103070000000000000000000000000000000000050
:103080000001FF0007FF800F03C00F03C00F03C044
:103090000F0780079F0003FE0003F0000FF83C3E7F
:1030A0007C3C3C1F3C780FF87807F87C01F03E032D
:1030B000F81FFFFC07FE1F000000000000000000DA
:1030C0000000000000000000000000000000000000
:1030D0000000000000000000000000000000003EB2
:1030E00000003C00003C00003C00003C00003C00B4
:1030F000003C000000000000000000000000000094
:1031000000000000000000000000000000000000BF
:1031100000000000000000000000000000000000AF
:10312000000000000000000000000000000000009F
:10313000000000000000000000000000008000010E
:10314000C0000780000F00001E00003C0000780057
:1031500000F00000E00001E00001E00001C0000319
:10316000C00003C00001C00001E00001E00000F069
:103170000000F000007800003C00001E00000F007E
:103180000007C00001C000000000000000000000B7
:10319000000000000000000000000000000003C06C
:1031A0000001E00000F000007C00003E00001E0076
:1031B000000F000007800007800003800003C000AC
:1031C00003C00003C00003C00003800007800007A5
:1031D00080000F00001E00003C0000780000F0009E
:1031E00001E000038000000000000000000000007B
:1031F0000000000000000000000000000000001CB3
:1032000000001C000018000F18F007DBE0007F0032
:1032100000FF0007DBE00E1870001800001C000023
:103220001C00000000000000000000000000000082
:10323000000000000000000000000000000000008E
:10324000000000000000000000000000000000007E
:10325000000000000000000000000000000000006E
:1032600000000000000000000000000000003C0022
:10327000003C00003C00003C00003C00003C003FE3
:10328000FFFC3FFFFC003C00003C00003C00003C19
:1032900000003C00000000000000000000000000F2
:1032A000000000000000000000000000000000001E
:1032B000000000000000000000000000000000000E
:1032C00000000000000000000000000000000000FE
:1032D00000000000000000000000000000000000EE
:1032E0000000000000000000000000007C00007EE4
:1032F00000007E00003E00001E00003C0000F800C0
:1033000007E00004000000000000000000000000D2
:1033100000000000000000000000000000000000AD
:10332000000000000000000000000000000000009D
:10333000000000000000000000000000000000038A
:10334000FFE003FFE00000000000000000000000BC
:10335000000000000000000000000000000000006D
:10336000000000000000000000000000000000005D
:10337000000000000000000000000000000000004D
:10338000000000000000000000000000000000003D
:10339000000000000000000000000000000000002D
:1033A0000000000000000000000000007C0000FEA3
:1033B0000000FE00007E0000000000000000000091
:1033C00000000000000000000000000000000000FD
:1033D00000000000000000000000000000000000ED
:1033E000780000F00000E00001E00003C00003806E
:1033F000000780000F00000E00001E00003C0000CF
:10340000380000700000F00000E00001C00003C0C0
:10341000000780000700000F00001E00001C0000D5
:10342000000000000000000000000000000000009C
:10343000000000000000000000000000000000008C
:103440000000000001FFC007FFE00F00F01E007841
:103450001E003C3C00FC3C07FC3C1FBC3C7C1C3D73
:10346000F03C3FC03C3F003C1E00381E00780F80FF
:10347000F007FFE001FF80000000000000000000F6
:10348000000000000000000000000000000000003C
:10349000000000000000000000000000000000002C
:1034A00000000000007E0003FE001FDE000E1E0074
:1034B000001E00001E00001E00001E00001E000076
:1034C0001E00001E00001E00001E00001E00001E48
:1034D000000FFFF80FFFF8000000000000000000E0
:1034E00000000000000000000000000000000000DC
:1034F00000000000000000000000000000000000CC
:103500000000000003FF800FFFE00E01F00000F05C
:103510000000F00000F00000F00001E00003C00037
:103520000F80003E00007C0001F00003C0000F800F
:10353000001FFFFC1FFFFC00000000000000000057
:10354000000000000000000000000000000000007B
:10355000000000000000000000000000000000006B
:10356000000000000FFF800FFFE00001E00000F00E
:103570000000F00001E00003C001FF0001FFC000F7
:1035800003F0000078000078000078000078000167
:10359000F00FFFC00FFF000000000000000000005F
:1035A000000000000000000000000000000000001B
:1035B000000000000000000000000000000000000B
:1035C00000000000000FC0001FC0003FC0007BC013
:1035D00000F3C001E3C003C3C00783C00F03C01CD6
:1035E00003C03803C07FFFFE7FFFFE0003C000035F
:1035F000C00003C00003C000000000000000000085
:1036000000000000000000000000000000000000BA
:1036100000000000000000000000000000000000AA
:10362000000000000FFFE00FFFE00F00000F0000A0
:103630000F00000F00000F00000FFF800FFFE000E1
:1036400000F00000780000780000780000F000032F
:10365000E00FFFC00FFE00000000000000000000AF
:10366000000000000000000000000000000000005A
:10367000000000000000000000000000000000004A
:1036800000000000003FF001FFF003E000078000B1
:103690000F00001E00001E1F001FFFE01FC1F81ECC
:1036A00000781E003C1E003C1E003C0F00780F807E
:1036B000F807FFE001FF80000000000000000000AC
:1036C00000000000000000000000000000000000FA
:1036D00000000000000000000000000000000000EA
:1036E000000000001FFFFC1FFFFC0000780000F03E
:1036F0000000E00001E00003C0000780000F0000B0
:103700000F00001E00003C0000780000F00001F0F7
:103710000001E00003C00000000000000000000005
:103720000000000000000000000000000000000099
:103730000000000000000000000000000000000089
:103740000000000003FFE00FE3F00F00781E007898
:103750001E00780F00F007E3E001FF8001FF800703
:10376000E7E00F00F81E00781E003C1E007C1F00E2
:10377000F80FFFF003FFC000000000000000000091
:103780000000000000000000000000000000000039
:103790000000000000000000000000000000000029
:1037A0000000000003FF800FC7E01E00F01E00783D
:1037B0003C00783C00783C00381E00780FEFF8079A
:1037C000FFB80000780000780000F00001E0000F72
:1037D000C00FFF000FF0000000000000000000001C
:1037E00000000000000000000000000000000000D9
:1037F00000000000000000000000000000000000C9
:1038000000000000000000000000000000000000B8
:10381000007E00007E00007E000018000000000016
:103820000000000000000000000000003C00007EDE
:1038300000007E00003E00000000000000000000CC
:103840000000000000000000000000000000000078
:103850000000000000000000000000000000000068
:103860000000000000000000000000000000000058
:10387000007E00007E00007E0000180000000000B6
:103880000000000000000000000000003E00007E7C
:1038900000007F00001F00001E00001E0000FC0052
:1038A00007F000040000000000000000000000001D
:1038B0000000000000000000000000000000000008
:1038C000000000000000000000000000400001E0D7
:1038D0000007C0001F00007E0001F80003E0000F99
:1038E00080000F800003E00000F800003E00000FA1
:1038F000800003E00000E000000000000000000085
:1039000000000000000000000000000000000000B7
:1039100000000000000000000000000000000000A7
:103920000000000000000000000000000000000097
:103930000000000000000000001FFFF80000000071
:1039400000000000001FFFF81FFFF800000000004B
:103950000000000000000000000000000000000067
:103960000000000000000000000000000000000057
:103970000000000000000000000000000000000047
:1039800000000000000000000000000000078000B0
:1039900003E00000F800003E00000F800003E0009C
:1039A00000F80001F00007C0001F00007C0001F0DB
:1039B0000007C0000300000000000000000000003D
:1039C00000000000000000000000000000000000F7
:1039D000000000000000000000000000000001C026
:1039E0000001FE00007F800007C00001E00000F041
:1039F0000000F00001F00003E0007FC0007E000046
:103A0000700000700000700000000000000000F86E
:103A10000000F80000F800000000000000000000B6
:103A20000000000000000000000000000000000096
:103A30000000000000000000000000000000001F67
:103A40008000FFF003C07807801C0E000E1C000EE3
:103A50003C000F383FC778FFC770E3C771C3C7F397
:103A6000C387E3C387E3878EE3878EE3CF8EE3FFCD
:103A7000FC71F9F07000007000003800003C00009C
:103A80000F01C007FFC000000000000000000000A0
:103A90000000000000000000000000000000000026
:103AA00000000000007E00007F0000FF0000E780B3
:103AB00001E78003C3C003C3C00781E00781E00FB3
:103AC00000F00F00F81FFFF81FFFFC3C003C3C001B
:103AD0001E78001EF0000F00000000000000000033
:103AE00000000000000000000000000000000000D6
:103AF00000000000000000000000000000000000C6
:103B0000000000001FFFC01FFFF01E00F01E007825
:103B10001E00781E00F01E01F01FFFC01FFFE01EF8
:103B200001F81E00781E003C1E003C1E00781E009E
:103B3000F81FFFE01FFF0000000000000000000071
:103B40000000000000000000000000000000000075
:103B50000000000000000000000000000000000065
:103B60000000000000FFF803FFF807C0000F00008E
:103B70001E00001E00003C00003C00003C00003C19
:103B800000003C00003E00001E00000F00000FC0BF
:103B90000803FFF800FFF80000000000000000002C
:103BA0000000000000000000000000000000000015
:103BB0000000000000000000000000000000000005
:103BC000000000003FFF003FFFE03C01F03C0078B8
:103BD0003C003C3C003C3C003C3C001E3C001E3C8D
:103BE000001E3C003C3C003C3C00783C00F83C079C
:103BF000E03FFFC03FFC00000000000000000000AC
:103C000000000000000000000000000000000000B4
:103C100000000000000000000000000000000000A4
:103C2000000000000FFFF00FFFF00F00000F00007A
:103C30000F00000F00000F00000FFFF00FFFF00F4C
:103C400000000F00000F00000F00000F00000F0029
:103C5000000FFFF00FFFF000000000000000000068
:103C60000000000000000000000000000000000054
:103C70000000000000000000000000000000000044
:103C8000000000000FFFF00FFFF00F00000F00001A
:103C90000F00000F00000F00000FFFF00FFFF00FEC
:103CA00000000F00000F00000F00000F00000F00C9
:103CB000000F00000F0000000000000000000000E6
:103CC00000000000000000000000000000000000F4
:103CD00000000000000000000000000000000000E4
:103CE0000000000000FFFC03FFFC0FC0041F0000E9
:103CF0001E00003C00003C0000780FFC780FFC78B0
:103D0000003C3C003C3C003C3E003C1F003C0FC0E3
:103D10003C03FFFC00FFF800000000000000000072
:103D20000000000000000000000000000000000093
:103D30000000000000000000000000000000000083
:103D4000000000003C003C3C003C3C003C3C003C93
:103D50003C003C3C003C3C003C3FFFFC3FFFFC3C4B
:103D6000003C3C003C3C003C3C003C3C003C3C00FB
:103D70003C3C003C3C003C00000000000000000017
:103D80000000000000000000000000000000000033
:103D90000000000000000000000000000000000023
:103DA000000000000FFFF80FFFF8003C00003C008F
:103DB000003C00003C00003C00003C00003C0000D7
:103DC0003C00003C00003C00003C00003C00003C8B
:103DD000000FFFF80FFFF8000000000000000000D7
:103DE00000000000000000000000000000000000D3
:103DF00000000000000000000000000000000000C3
:103E0000000000000FFFE00FFFE00001E00001E014
:103E10000001E00001E00001E00001E00001E0003D
:103E200001E00001E00001E00001E00003C00C0738
:103E3000C00FFF8007FE000000000000000000002F
:103E40000000000000000000000000000000000072
:103E50000000000000000000000000000000000062
:103E6000000000001E00781E01F01E03C01E078027
:103E70001E1F001E3C001E78001EF0001FF0001EDA
:103E8000F8001E3C001E1E001E0F801E07C01E01F3
:103E9000E01E00F81E007C00000000000000000092
:103EA0000000000000000000000000000000000012
:103EB0000000000000000000000000000000000002
:103EC00000000000078000078000078000078000D6
:103ED0000780000780000780000780000780000738
:103EE00080000780000780000780000780000780AF
:103EF0000007FFF807FFF8000000000000000000C6
:103F000000000000000000000000000000000000B1
:103F100000000000000000000000000000000000A1
:103F2000000000003E007C3F00FC3F81DC3B81DC68
:103F30003BC39C39C39C38E71C38EF1C387E1C38C7
:103F40007C1E383C1E78001E78001E78001E78000B
:103F50001E78001E78001E00000000000000000017
:103F60000000000000000000000000000000000051
:103F70000000000000000000000000000000000041
:103F8000000000001F003C1F803C1FC03C1DC03CC7
:103F90001DE03C1CF03C1C783C1C783C1C3C3C1C50
:103FA0001E3C1C0F3C1C0F3C1C07BC1C03FC1C01D2
:103FB000FC1C00FC1C00FC000000000000000000D5
:103FC00000000000000000000000000000000000F1
:103FD00000000000000000000000000000000000E1
:103FE0000000000001FFC007FFF00F00F81E007C7A
:103FF0003C003C3C001E78001E78001E78001E78B5
:10400000001E78001E3C003C3C003C1E00781F0057
:10401000F007FFE001FF800000000000000000004A
:104020000000000000000000000000000000000090
:104030000000000000000000000000000000000080
:10404000000000001FFF801FFFF01E00F81E007C14
:104050001E003C1E003C1E003C1E00781E03F01F8C
:10406000FFC01FFE001E00001E00001E00001E00FC
:10407000001E00001E000000000000000000000004
:104080000000000000000000000000000000000030
:104090000000000000000000000000000000000020
:1040A0000000000001FFC007FFF00F00F81E007CB9
:1040B0003C003C3C001E78001E78001E78001E78F4
:1040C000001E78001E3C003C3C003C1E00781F8017
:1040D000F007FFE001FF80003C00003C00001F06ED
:1040E000000FFF0001F800000000000000000000C9
:1040F00000000000000000000000000000000000C0
:10410000000000000FFF800FFFE00E01F00E00F036
:104110000E00F00E00F00E01F00FFFC00FFF000EBA
:104120001F000E07800E03C00E01E00E00F00E000F
:10413000F80E00780E003C000000000000000000B7
:10414000000000000000000000000000000000006F
:10415000000000000000000000000000000000005F
:104160000000000003FFF00FFFF01F00001E000022
:104170001E00001F00000FC00007FC0000FF8000B1
:104180000FF00001F80000780000780000782000AF
:10419000F83FFFE03FFF800000000000000000004B
:1041A000000000000000000000000000000000000F
:1041B00000000000000000000000000000000000FF
:1041C000000000003FFFFC3FFFFC003C00003C0003
:1041D000003C00003C00003C00003C00003C0000B3
:1041E0003C00003C00003C00003C00003C00003C67
:1041F00000003C00003C0000000000000000000047
:1042000000000000000000000000000000000000AE
:10421000000000000000000000000000000000009E
:10422000000000003C003C3C003C3C003C3C003CAE
:104230003C003C3C003C3C003C3C003C3C003C3CEA
:10424000003C3C003C3C003C3C003C1E00781F0015
:10425000F80FFFE003FF80000000000000000000F6
:10426000000000000000000000000000000000004E
:10427000000000000000000000000000000000003E
:1042800000000000F8000F78001E3C001E3C003CBF
:104290001E00381E00780F00700F00F00781E00745
:1042A00081E003C3C003E3C001E78000F78000FFA3
:1042B00000007E00007E0000000000000000000002
:1042C00000000000000000000000000000000000EE
:1042D00000000000000000000000000000000000DE
:1042E0000000000078000E78000E78000E78001EA6
:1042F00038001E38001E383C1C383C1C387E1C38E8
:104300007F1C3CE71C3CE79C3DC39C1DC3DC1F811C
:10431000DC1F80F81F00F800000000000000000013
:10432000000000000000000000000000000000008D
:10433000000000000000000000000000000000007D
:10434000000000003C003C1E00780F00F00781E0F8
:1043500003C3C001E78000FF00007E00007E000074
:10436000FF0001FF8003E7C007C3E00F81F01F00DB
:10437000F83E007C7C003E000000000000000000D1
:10438000000000000000000000000000000000002D
:10439000000000000000000000000000000000001D
:1043A0000000000078001F3C003E1E007C1F0078CB
:1043B0000F80F007C1E003E3C001E78000FF0000C9
:1043C0007E00003C00003C00003C00003C00003C43
:1043D00000003C00003C0000000000000000000065
:1043E00000000000000000000000000000000000CD
:1043F00000000000000000000000000000000000BD
:10440000000000001FFFFC1FFFFC0000F80001E09F
:104410000003C0000780000F00001E00003C0000E9
:10442000780000F00003E00007C0000F80001F00CC
:10443000003FFFFC3FFFFC00000000000000000008
:10444000000000000000000000000000000000006C
:10445000000000000000000000000000000001FF5C
:10446000C001FFC001E00001E00001E00001E00048
:1044700001E00001E00001E00001E00001E00001D6
:10448000E00001E00001E00001E00001E00001E0E7
:104490000001E00001E00001E00001E00001E000B7
:1044A00001E00001FFC0000000000000000000006B
:1044B00000000000000000000000000000000E00EE
:1044C000000F000007000003800003C00001E000AF
:1044D00000E00000F000007800003800003C000020
:1044E0001E00000E00000F00000780000380000186
:1044F000C00001E00000E000007000007800003C17
:1045000000000000000000000000000000000000AB
:10451000000000000000000000000000000003FF99
:104520008003FF800007800007800007800007806D
:1045300000078000078000078000078000078000D8
:1045400007800007800007800007800007800007C1
:104550008000078000078000078000078000078038
:1045600000078003FF800000000000000000000042
:10457000000000000000000000000000000000003B
:1045800000000000003C00007E0000E70001C38046
:104590000381C00700E00E00F01E0078000000005C
:1045A000000000000000000000000000000000000B
:1045B00000000000000000000000000000000000FB
:1045C00000000000000000000000000000000000EB
:1045D00000000000000000000000000000000000DB
:1045E00000000000000000000000000000000000CB
:1045F00000000000000000000000000000000000BB
:1046000000000000000000000000000000000000AA
:10461000000000000000000000000000000000009A
:10462000FFFFFFFFFFFF0000000000000000000090
:1046300000000000000000000000000000000F80EB
:104640000003E00000F800003C0000000000000053
:10465000000000000000000000000000000000005A
:10466000000000000000000000000000000000004A
:10467000000000000000000000000000000000003A
:10468000000000000000000000000000000000002A
:10469000000000000000000000000000000000001A
:1046A000000000000000000000000000000000000A
:1046B00007FFC007E7F00000F00000780000780076
:1046C000FFF807FFF80F00781E00781E00781E0321
:1046D000F80FFFF807FC7800000000000000000061
:1046E00000000000000000000000000000000000CA
:1046F00000000000000000000000000000001E009C
:10470000001E00001E00001E00001E00001E000013
:104710001E7FE01EFFF01FC0781F00781E003C1EA9
:10472000003C1E003C1E003C1E00381E00781E008F
:10473000F01FFFE007FF0000000000000000000085
:104740000000000000000000000000000000000069
:104750000000000000000000000000000000000059
:104760000000000000000000000000000000000049
:1047700000FFF003FFF007C0000F80000F00001ED5
:1047800000001E00001E00000F00000F800007C088
:104790000003FFF000FFF000000000000000000038
:1047A0000000000000000000000000000000000009
:1047B00000000000000000000000000000000000F9
:1047C0007800007800007800007800007800007819
:1047D00001FFF807FFF80F00781E00781E00783CF4
:1047E00000783C00783C00781C00781E01F81F031C
:1047F000F80FFF7803FC78000000000000000000C4
:1048000000000000000000000000000000000000A8
:104810000000000000000000000000000000000098
:104820000000000000000000000000000000000088
:1048300001FFC007E3F00F00F81E00781E003C1FC8
:10484000FFFC1FFFFC1C00001E00001E00000F806C
:104850000007FFF801FFF800000000000000000062
:104860000000000000000000000000000000000048
:104870000000000000000000000000000000000335
:10488000FC001FFE003E0000780000780000700071
:104890000070000070003FFFFC3FFFFC0070000054
:1048A0007000007000007000007000007000007068
:1048B0000000700000700000000000000000000018
:1048C00000000000000000000000000000000000E8
:1048D00000000000000000000000000000000000D8
:1048E00000000000000000000000000000000000C8
:1048F00003FFFC07C3FC0F00F01E00F01E00F00FCA
:1049000000F00F83E00FFFC01E7C001C00001F00A2
:10491000000FFFF00FFFFC1E003C3C003C3C003C45
:104920001F81F80FFFE000380000000000000000C9
:1049300000000000000000000000000000001E0059
:10494000001E00001E00001E00001E00001E0000D1
:104950001E7FE01EFFF01FC0F01F00781E00781EB3
:1049600000781E00781E00781E00781E00781E0059
:10497000781E00781E007800000000000000000093
:104980000000000000000000000000000000000027
:104990000000000000000000000000000000003CDB
:1049A00000007E00007E00003C00000000000000CF
:1049B0000FFE000FFE00001E00001E00001E000083
:1049C0001E00001E00001E00001E00001E00001E33
:1049D000000FFFF80FFFF8000000000000000000CB
:1049E00000000000000000000000000000000000C7
:1049F00000000000000000000000000000000003B4
:104A0000800007E00007E0000380000000000000D5
:104A10000FFFC00FFFC00003C00003C00003C000B1
:104A200003C00003C00003C00003C00003C00003B4
:104A3000C00003C00003C00003C00003C000078023
:104A40001E3F001FFE0001C000000000000000002B
:104A500000000000000000000000000000000F0047
:104A6000000F00000F00000F00000F00000F0000FB
:104A70000F00F80F01E00F07C00F1F000F3C000FE1
:104A8000F8000FF8000F3E000F1F000F07C00F03C4
:104A9000E00F00F80F007C000000000000000000A4
:104AA0000000000000000000000000000000000006
:104AB00000000000000000000000000000000FFEE9
:104AC000000FFE00001E00001E00001E00001E0061
:104AD000001E00001E00001E00001E00001E000040
:104AE0001E00001E00001E00001E00001E00001E12
:104AF000000FFFF80FFFF8000000000000000000AA
:104B000000000000000000000000000000000000A5
:104B10000000000000000000000000000000000095
:104B20000000000000000000000000000000000085
:104B300039F9F83BBBBC3E3E1C3C3E1C383C1C38A3
:104B40003C1C383C1C383C1C383C1C383C1C383C59
:104B50001C383C1C383C1C00000000000000000019
:104B60000000000000000000000000000000000045
:104B70000000000000000000000000000000000035
:104B80000000000000000000000000000000000025
:104B90001E7FE01EFFF01FC0F01F00781E00781E71
:104BA00000781E00781E00781E00781E00781E0017
:104BB000781E00781E007800000000000000000051
:104BC00000000000000000000000000000000000E5
:104BD00000000000000000000000000000000000D5
:104BE00000000000000000000000000000000000C5
:104BF00001FFC007E7F00F00F81E003C3C003C3C02
:104C0000003C3C003C3C003C3C003C1E00781F004B
:104C1000F007FFE001FF800000000000000000003E
:104C20000000000000000000000000000000000084
:104C30000000000000000000000000000000000074
:104C40000000000000000000000000000000000064
:104C50001E7FE01EFFF01FC0781F00781E003C1E64
:104C6000003C1E003C1E003C1E00381E00781E004A
:104C7000F01FFFE01FFF001E00001E00001E0000CE
:104C80001E00001E000000000000000000000000E8
:104C90000000000000000000000000000000000014
:104CA0000000000000000000000000000000000004
:104CB00001FFF807F7F80F00781E00781E00783C17
:104CC00000783C00783C00781C00781E01F81F0337
:104CD000F80FFF7803FC7800007800007800007877
:104CE00000007800007800000000000000000000D4
:104CF00000000000000000000000000000000000B4
:104D000000000000000000000000000000000000A3
:104D10000F1FF00F7FF80FE03C0F803C0F003C0F9F
:104D200000000F00000F00000F00000F00000F0038
:104D3000000F00000F000000000000000000000055
:104D40000000000000000000000000000000000063
:104D50000000000000000000000000000000000053
:104D60000000000000000000000000000000000043
:104D700001FFE007E1E00F00000F000007800003E3
:104D8000FC0000FFC0000FF00000F0000078000001
:104D9000F00FFFE00FFF80000000000000000000A7
:104DA0000000000000000000000000000000000003
:104DB00000000000000000000000000000000000F3
:104DC0000000000001E00001E00001E00001E0005F
:104DD0007FFFF87FFFF801E00001E00001E0000143
:104DE000E00001E00001E00001E00001E00000F06F
:104DF00000007FF8003FF800000000000000000005
:104E000000000000000000000000000000000000A2
:104E10000000000000000000000000000000000092
:104E20000000000000000000000000000000000082
:104E30001E00781E00781E00781E00781E00781E66
:104E400000781E00781E00781E00780E00F80F0310
:104E5000F807FF7803FC7800000000000000000065
:104E60000000000000000000000000000000000042
:104E70000000000000000000000000000000000032
:104E80000000000000000000000000000000000022
:104E90003C003C1E007C1E00780F00F00F80F007E5
:104EA00081E003C3C003C3C001E78000E70000FF47
:104EB00000007E00003C0000000000000000000038
:104EC00000000000000000000000000000000000E2
:104ED00000000000000000000000000000000000D2
:104EE00000000000000000000000000000000000C2
:104EF00078000E78001E78001E383C1E383C1C3CA2
:104F00007E1C3C7E3C1CE73C1CE7B81DC3B81FC39D
:104F1000F80F81F80F81F000000000000000000091
:104F20000000000000000000000000000000000081
:104F30000000000000000000000000000000000071
:104F40000000000000000000000000000000000061
:104F50001F007C0F80F007C1E003E3C000F7800072
:104F60007F00003E0000FF0001E78003C3C007810F
:104F7000F01F00F83E007C00000000000000000070
:104F80000000000000000000000000000000000021
:104F90000000000000000000000000000000000011
:104FA0000000000000000000000000000000000001
:104FB0003C003C1E003C1E00780F00F00780F0070C
:104FC00081E003C1C003C3C001E78000F78000FF98
:104FD00000007E00003E00003C0000780001F00070
:104FE0007FE0007F80000000000000000000000063
:104FF00000000000000000000000000000000000B1
:1050000000000000000000000000000000000000A0
:105010000FFFF00FFFF00001E00007C0000F80005D
:105020001E00003C0000F80001E00003C000078003
:10503000000FFFF80FFFF800000000000000000064
:105040000000000000000000000000000000000060
:105050000000000000000000000000000000000749
:10506000E0001FE0003C000038000038000078003D
:105070000078000078000078000078001FF0001F22
:10508000800001F0000078000078000078000078CF
:1050900000007800007800007800003800003C0034
:1050A000001F80000FE00000000000000000000072
:1050B0000000000000003C00003C00003C00003C00
:1050C00000003C00003C00003C00003C00003C00B4
:1050D000003C00003C00003C00003C00003C0000A4
:1050E0003C00003C00003C00003C00003C00003C58
:1050F00000003C00003C00003C00003C00003C0084
:10510000003C00003C000000000000000000000027
:10511000000000000000000000000000000007E0A8
:105120000007F800003C00001E00001E00001E00EA
:10513000001E00001E00001E00000E00000FF80000
:1051400001F8000F80000E00001E00001E00001E6F
:1051500000001E00001E00001E00001E00003C009B
:1051600000FC0007F000000000000000000000004C
:10517000000000000000000000000000000000002F
:10518000000000000000000000000000000000001F
:1051900000000000000000000007C0001FF01E3CDF
:1051A0007C1E381FFC7807F800000000000000009B
:1051B00000000000000000000000000000000000EF
:1051C000000000000000000000000000EC5100089A
:1051D000000000202C000000A8140008185200084D
:1051E0002C00002004040000B81400081E00000079
:1051F0006C160008080010005C1C00081000180065
:105200002C2E000818002000F000400106000000CD
:085210000400002000F81F005B
:0400000508000131BD
:00000001FF
