:020000040800F2
:10000000804B002045010008BD240008F1140008C1
:10001000B92400083D0B0008F9300008000000007A
:100020000000000000000000000000001D29000882
:10003000C10C00080000000095250008A52A000852
:100040005F0100085F0100085F0100085F01000810
:100050005F0100085F010008ED0C00085F01000867
:100060005F0100085F0100085F0100085F010008F0
:100070005F0100085F0100085F0100085F010008E0
:100080005F0100085F010008650800085F010008C3
:100090005F0100085F0100085F0100085F010008C0
:1000A0005F0100085F0100085F0100085F010008B0
:1000B0005F010008412B00085F0100085F01000894
:1000C0005F0100085F0100085F0100085F01000890
:1000D0005F0100085F0100085F0100085F01000880
:1000E000110D00085F0100085F0100085F010008B2
:1000F0005F0100085F0100085F0100085F01000860
:100100005F0100085F0100085F0100085F0100084F
:100110005F0100085F0100085F0100085F0100083F
:100120005F0100085F0100085F0100085F0100082F
:10013000DFF80CD000F028FB00480047293D0008FC
:10014000804B00200648804706480047FEE7FEE750
:10015000FEE7FEE7FEE7FEE7FEE7FEE7FEE7FEE777
:10016000E12A00083101000830B480EA010202F0FF
:10017000004530F0004221F0004013D090B1C30D93
:10018000D40DC2F31601C0F31600E41A41F40001C5
:1001900040F400027D34914201D3641C00E0490028
:1001A000002C02DA30BC002070474FF4000000231E
:1001B000914201D3891A034340084FEA4101F7D124
:1001C00051B1914202D14FF0004105E002D24FF00F
:1001D000010101E06FF0010103EBC450284430BC81
:1001E00000F0F7B82DE9FE4F81EA030404F0004463
:1001F00021F0004100944FF0000B23F0004350EA3F
:1002000001045ED052EA03045BD0C3F30A54C1F385
:100210000A552C44A4F2F3340194A0FB0254C1F318
:10022000130141F48011C3F3130343F4801301FB62
:10023000024400FB034E840A970A44EA815447EAC9
:100240008357A4FB076802958D0A05FB07854FEAD3
:10025000932C04FB0C542705029D4FEA065847EAED
:100260001637B5EB08056EEB070C870E920E47EAC2
:10027000811742EA8312A7FB0201B6EB0B0164EB84
:1002800000042B0D43EA0C335E1844EB1C50DA4695
:100290005146E7FB0201C5F313044FEA0B3343EA6F
:1002A00014534FEA0432019C43EA0603A4F10C0400
:1002B0000294009CCDE900B400F0D1F803B0BDE891
:1002C000F08F00200146F9E796230022114600F046
:1002D00089B800F0004230F000400AD0C10D01F5AD
:1002E0006071C0F3160042EA0151C2084007114391
:1002F000704700200146704701F0004330B421F000
:10030000004150EA010206D00A0DA2F56072C1F365
:100310001301002A02DC30BC00207047440F44EA7D
:10032000C104C100E01830BC00EBC25000F051B86D
:10033000002801DBC0F10040002901DBC1F10041D0
:100340008842704730B50B46014600202022012428
:1003500009E021FA02F59D4205D303FA02F5491B93
:1003600004FA02F52844151EA2F10102F1DC30BDA9
:100370002DE9F05F0546002092469B4688460646DA
:10038000814640241BE0284641464746224600F06D
:100390001CFA53465A46C01A914110D311461846CA
:1003A000224600F003FA2D1A67EB01084F46224659
:1003B0000120002100F0FAF917EB00094E41201E40
:1003C000A4F10104DFDC484631462A464346BDE835
:1003D000F09F0029A8BF7047401C490008BF20F0CB
:1003E0000100704710B4B0FA80FC00FA0CF050EA3B
:1003F000010404BF10BC704749B1CCF1200421FABC
:1004000004F411FA0CF118BF012121430843A3EBB6
:100410000C01CB1D4FEA00614FEA102042BF0020C3
:1004200010BC704700EBC35010440029A4BF10BC9F
:100430007047401C490008BF20F0010010BC704705
:1004400010B5141E73F1000408DA401C41F10001DC
:1004500092185B411A4301D120F0010010BD2DE933
:10046000F04D92469B4611B1B1FA81F202E0B0FA2A
:1004700080F22032904600F099F904460F4640EA97
:100480000A0041EA0B0153465A46084313D011466D
:1004900053EA010019D0C8F14002504600F095F926
:1004A00005460E4650465946424600F07FF908433D
:1004B00005D0012004E020463946BDE8F08D00203B
:1004C000054346EAE0762C4337430A986305E40A7D
:1004D000A0EB08000022FD0A44EA47540A3002D586
:1004E00000200146E9E7010510196941DDE90845E9
:1004F00000196941BDE8F04DA2E72DE9FE4F8046A5
:1005000081EA0300C00F0C46009021F0004123F067
:100510000045B8EB0200A94105D24046214690466D
:100520001C460B46024623F00040104347D0270DDF
:10053000C7F30A00C3F30A510290401A0190402801
:100540006BDAC3F3130040F4801B0098924620B18D
:100550000023D2EB030A63EB0B0B01985946C0F161
:100560004002504600F022F906460D4650465946D4
:10057000019A00F03AF910EB08006141002487EA83
:10058000115284EAE7731A4340D0009A62B3019A89
:10059000012A4FEA075215DC001B61EB02014FF004
:1005A000004202EA0752CDE90042001C41F58011E9
:1005B00032462B46FFF753FF03B0BDE8F08F4046AD
:1005C0002146F9E7001B61EB0201001C41F5801395
:1005D00000185B412018A2F5001747EB030140EA21
:1005E000D570B6196D4111E06D084FEA360645EA3F
:1005F000C0754FEA0752001B61EB0201001C41F578
:10060000801149084FEA30000019514132462B460B
:1006100003B0BDE8F04FFFF713BF00980122400080
:100620000023D0EB020263EBE073009821464FEA0F
:10063000E074B8EB000061EB0401E9E783F00043EC
:100640005BE781F0004158E72DE9F04D81EA0304B2
:1006500004F0004B21F0004514464FF0000A23F04F
:10066000004150EA050220D054EA01021DD0C5F332
:100670000A570246C5F31303C1F31300C1F30A5628
:1006800040F4801543F48013A7EB0608101BD646F0
:1006900008F2FD3873EB050002D308F1010801E010
:1006A00092185B41B8F1000F03DA00200146BDE863
:1006B000F08D00204FF48011064684460EE0171B93
:1006C00073EB050705D3121B63EB050306434CEAE6
:1006D000010C49084FEA300092185B4150EA0107CB
:1006E000EDD152EA030012D082EA040083EA050148
:1006F000084305D0101BAB4106D20122002306E0BF
:1007000000224FF0004302E06FF0010253101AEB99
:1007100006004CEB085110EB0A0041EB0B01BDE861
:10072000F04DFFF78DBEC1F30A52C1F3130140F241
:10073000FF3341F480119A4202DA002001467047EB
:1007400040F233439A42A2F2334202DC524200F0BA
:100750003CB800F02BB8000030B5041E71F1000465
:1007600004DB4FF00044404264EB0101141E73F1BE
:10077000000405DB1C464FF00043524263EB0403C8
:10078000994208BF904230BD064C074D06E0E06834
:1007900040F0010394E8070098471034AC42F6D3C8
:1007A000FFF7CAFC087A0008287A0008202A04DB30
:1007B000203A00FA02F1002070479140C2F1200374
:1007C00020FA03F3194390407047202A04DB203AB3
:1007D00021FA02F00021704721FA02F3D040C2F161
:1007E00020029140084319467047202A06DBCB17A8
:1007F000203A41FA02F043EAE07306E041FA02F3DC
:10080000D040C2F12002914008431946704770B5AC
:100810008C1810F8015B15F0070301D110F8013BAB
:100820002A1106D110F8012B03E010F8016B01F832
:10083000016B5B1EF9D12B0705D40023521E0DD48A
:1008400001F8013BFAE710F8013BCB1A921C03E0D8
:1008500013F8015B01F8015B521EF9D5A142D8D310
:10086000002070BD10B54FF40871084800F030F852
:10087000012804D1054800F027F8054908804FF405
:100880000871024800F006F810BD00000028014081
:10089000A401002000220A12D3430360704721B153
:1008A000826842F00102826003E0826822F0010265
:1008B00082607047014600208A6802F004020AB193
:1008C000012000E0002070470146C86C80B27047EC
:1008D00070B502460020002300240B125568CEB2EA
:1008E00005EA060415681D4015B10CB1012000E0B1
:1008F000002070BD014600208A6802F008020AB19B
:10090000012000E00020704710B50023CBB21AB1DF
:1009100044681C43446002E044689C43446010BD4A
:1009200030B502460020002350680F4C20400D795E
:100930000C6844EA05242043506090680B4C20402A
:10094000D1E902542C434D7944EA45042043906098
:10095000D06A20F470000C7C641EE4B2234340EAA9
:100960000350D06230BD0000FFFEF0FFFDF7F1FF45
:1009700008B54FF4C06001F003FE12208DF80000AE
:1009800001208DF801008DF802008DF80300684603
:1009900001F0BEFD08BDF0B504460D460020002163
:1009A000092D11DDE068A5F10A0606EB46070726CA
:1009B00006FA07F18843A5F10A0606EB460603FA94
:1009C00006F10843E0600CE0206905EB45070726C7
:1009D00006FA07F1884305EB450603FA06F10843DA
:1009E0002061072A0FDA606B561E06EB86071F266A
:1009F00006FA07F18843561E06EB860605FA06F14D
:100A00000843606322E00D2A0FDA206BD61F06EB45
:100A100086071F2606FA07F18843D61F06EB8606CF
:100A200005FA06F10843206310E0E06AA2F10D0622
:100A300006EB86071F2606FA07F18843A2F10D068A
:100A400006EB860605FA06F10843E062F0BD816810
:100A500041F008018160704721B1826842F4A00230
:100A6000826003E0826822F4A0028260704781689D
:100A700041F004018160704708B50121102001F0A8
:100A8000B7FD0220ADF8000000208DF80300694694
:100A9000014800F021FC08BD0010014010B5FFF72F
:100AA000EBFF00F003F8FFF763FF10BD00B585B062
:100AB0000121880201F09CFD002000908DF80400C7
:100AC00001208DF805004FF4602002900020039073
:100AD00001208DF8100069461748FFF721FF4FF4F9
:100AE000404001F059FD052301220B211248FFF778
:100AF00052FF01224FF408710F48FFF705FF012153
:100B00000D48FFF7CCFE0C48FFF7A1FF00BF0A48D5
:100B1000FFF7F0FE0028FAD10748FFF7A8FF00BF53
:100B20000548FFF7C7FE0028FAD101210248FFF768
:100B300093FF05B000BD00000028014000BFFEE7A4
:100B400008B50121402001F053FD4020ADF8000020
:100B500010208DF8030003208DF80200694602483A
:100B600000F0BAFB08BD00000018014010B5FFF707
:100B7000E7FF4021014800F08EFC10BD0018014045
:100B800008B54020ADF8000048208DF80300694604
:100B9000014800F0A1FB08BD0018014008B5402045
:100BA000ADF8000010208DF8030003208DF802003E
:100BB0006946024800F090FB08BD000000180140A3
:100BC00070B50025002424E000BF4021134800F048
:100BD00057FC0028F9D0282000F074F840210F4875
:100BE00000F04EFC01280DD100BF40210B4800F061
:100BF00047FC0128F9D0C4F1070101208840C0B2A8
:100C0000054304E0C4F10701012088408543601CCE
:100C1000C4B2082CD8DB284670BD00000018014083
:100C200010B50446FFF7BAFF4021244800F031FC1C
:100C300044F2506000F046F84021204800F02BFCC0
:100C40001E2000F03FF8FFF79BFF40211B4800F0FB
:100C500017FC70BB00BF4021184800F011FC0028B1
:100C6000F9D000BF4021154800F00AFC0128F9D056
:100C7000FFF7A6FF2070FFF7A3FF6070FFF7A0FF4C
:100C8000A070FFF79DFFE070FFF79AFF2071FFF75C
:100C900085FF4021094800F0FEFB20786178084478
:100CA000A1780844E17808442179884202D10120E2
:100CB00010BD01E00020FBE70020F9E7001801402B
:100CC0007047000001B50849009808604FF0E02027
:100CD000006940F001004FF0E021086100BF0248C8
:100CE00000680028FBD108BDA001002010B501203C
:100CF00000F048F830B105480068401C034908601E
:100D000003F08CF8012000F017F810BD9C010020C2
:100D100010B54FF4005000F035F830B105480068C8
:100D2000401E0449086003F079F84FF4005000F0C9
:100D300003F810BD9C0100200149086070470000C5
:100D40001404014008B50121152001F051FC0120D7
:100D5000ADF8000004208DF803006946074800F054
:100D6000BBFA4FF40050ADF8000004208DF80300EA
:100D70006946034800F0B0FA08BD000000080140D1
:100D800000100140014600200022074B1B6803EAC7
:100D90000102054B14331B680B4013B10AB101204B
:100DA00000E00020704700000004014000212349BA
:100DB0008279002A3AD00A46126803689A430B46A1
:100DC0001A600A1D126803689A430B1D1A600279A3
:100DD00011440A6803681A430A60184A0832126804
:100DE00003689A43154B08331A601A1D126803688A
:100DF0009A43124B0C331A604279102A0ED11A1FF3
:100E0000126803681A430D4B08331A601A1D1268E2
:100E100003681A43094B0C331A600DE00749427905
:100E200011440A6803681A430A6005E00279114414
:100E30000A6803689A430A60704700000004014092
:100E40001CB5FFF77FFF00F02AF80121084601F0EA
:100E5000CFFB0021084600F01FFA0120009000207F
:100E60008DF8040008208DF8050001208DF806009B
:100E70006846FFF79BFF0D21022000F00DFA4FF4AA
:100E80000050009000208DF804000C208DF8050023
:100E900001208DF806006846FFF788FF1CBD08B5E5
:100EA0004FF4C06001F06CFB06208DF800000120BB
:100EB0008DF801008DF802008DF80300684601F0FE
:100EC00027FB28208DF8000001208DF8010000206C
:100ED0008DF8020001208DF80300684601F018FB30
:100EE00008BD00001CB500214FF6E07001F004F9C8
:100EF00083480388834802880021084600F00CFBE1
:100F00007F480088903883B27E4802889021002074
:100F100000F002FB00207CA130231A46CDE900102E
:100F200020211E2000F018FB4FF4784001F0F4F867
:100F300000233222C8213C2000F0C4FB00233222CF
:100F4000C821B42000F0BEFB4FF4FC6001F0E4F8CF
:100F500001231422C8213C2000F0B4FB01231422F9
:100F6000C821B42000F0AEFB00F0D6F86948FFF7C6
:100F7000A9FE63480088903883B2624802889021B5
:100F8000002000F0C9FA4FF4784001F0C5F80023C2
:100F90003222C8213C2000F095FB00233222C821D8
:100FA000B42000F08FFB4FF4FC6001F0B5F8012392
:100FB0001422C821232000F085FB01231422C8211C
:100FC0009B2000F07FFB00F0A7F85248FFF77AFE65
:100FD0004B480088903883B24A480288902100200C
:100FE00000F09AFA4FF4784001F096F8002332228C
:100FF000C8213C2000F066FB00233222C821B42027
:1010000000F060FB4FF4FC6001F086F8012314222D
:10101000AF213C2000F056FB01231422AF21B42065
:1010200000F050FB00F078F83A48FFF74BFE3448E8
:101030000088903883B2334802889021002000F065
:101040006BFA4FF4784001F067F800233222C82190
:101050003C2000F037FB00233222C821B42000F0EE
:1010600031FB4FF4FC6001F057F801231422C82132
:10107000552000F027FB01231422C821CD2000F0C9
:1010800021FB00F049F82348FFF71CFE1C480088AC
:10109000903883B21B4802889021002000F03CFA6F
:1010A0004FF4784001F038F800233222C8213C2068
:1010B00000F008FB00233222C821B42000F002FB1C
:1010C0004FF4FC6001F028F801231422E1213C20B8
:1010D00000F0F8FA01231422E121B42000F0F2FA22
:1010E00000F01AF80B48FFF7EDFD0548008890382E
:1010F00083B2044802889021002000F00DFA1CBD44
:10110000CE010020CC010020BBB6D3ADCAB9D3C3F9
:101110000000000040420F0008B54FF6E07000F0FC
:10112000FBFF01201E233C2278210090184600F08E
:10113000B5FB01201E233C2278210090962000F070
:10114000ADFB08BD08B50121042001F051FA4FF4B0
:101150008070ADF8000010208DF8030003208DF89A
:1011600002006946044800F0B7F84FF48071024865
:1011700000F08FF908BD00000008014051B1820065
:10118000A2F1C042126842F001038200A2F1C04203
:10119000136009E08200A2F1C0421268034B1A40BA
:1011A0008300A3F1C0431A6070470000FEFF0F00E8
:1011B000D0E901121143C268114302691143426927
:1011C000114382691143C2691143026A1143426AA1
:1011D0001143826A1143C26A1143026B11430268D0
:1011E0009200A2F1C0421160816808290BD1016808
:1011F0008900A1F1C041096841F0400201688900FD
:10120000A1F1C0410A60416B0968426B526841EA32
:101210000211426B926841EA0221426B928941EAD3
:101220000241426B128A41EA0251426B127D41EA4D
:101230000261426B926911430268521C9200A2F152
:10124000C0421160C16AB1F5804F1BD1816B096842
:10125000826B526841EA0211826B926841EA022174
:10126000826B128A41EA0251826B127D41EA02616D
:10127000826B9269114302689200A2F1C042C2F8E7
:10128000041107E06FF0704201688900A1F1C041CC
:10129000C1F804217047000030B500228B071C0FF5
:1012A0000F2303FA04F20B4B8C1053F824309343B2
:1012B000084C8D1044F8253023468C1053F8243008
:1012C0008C07240F00FA04F42343024C8D1044F8D9
:1012D000253030BD080001402DE9F04102460025CF
:1012E0000026002000230024002791F803C00CF002
:1012F0000F0591F803C00CF0100CBCF1000F03D0E7
:1013000091F802C04CEA050591F800C0BCF1000F4D
:1013100031D0146800202BE04FF0010C0CFA00F3E0
:10132000B1F800C00CEA03069E4220D183004FF0C2
:101330000F0C0CFA03F7BC4305FA03FC4CEA040457
:1013400091F803C0BCF1280F06D14FF0010C0CFA44
:1013500000FCC2F814C00AE091F803C0BCF1480FC9
:1013600005D14FF0010C0CFA00FCC2F810C0401C73
:101370000828D1D31460B1F800C0BCF1FF0F34DDF0
:10138000546800202EE000F1080C4FF0010808FA24
:101390000CF3B1F800C00CEA03069E4221D1830091
:1013A0004FF00F0C0CFA03F7BC4305FA03FC4CEAB0
:1013B000040491F803C0BCF1280F05D100F1080C1A
:1013C00008FA0CF8C2F8148091F803C0BCF1480F79
:1013D00007D100F1080C4FF0010808FA0CF8C2F828
:1013E0001080401C0828CED35460BDE8F081000076
:1013F000F0B50A46002300240021002500F0004635
:10140000B6F1004F02D11D4EF16901E01B4E71682B
:10141000C0F3034583B200F44016B6F5401F08D16F
:1014200021F07061154E766826F07066134F7E606D
:1014300012E000F48016B6F5801F06D1032606FAE6
:1014400005F4A14341F0706106E0460D360103FA50
:1014500006F6B14341F0706122B1460D360103FA40
:1014600006F6314300F00046B6F1004F02D1034EBC
:10147000F16101E0014E7160F0BD0000000001402B
:101480000246002093680B400BB1012000E00020D1
:101490007047416170470161704700002DE9F041DC
:1014A00080460C461048007820B901F04FF9012021
:1014B0000D4908702512E6B2A5F1A101C1EB011298
:1014C00002EB411106EB4101A1390802C11700EB03
:1014D0005171CF10054839182022404601F00EF90D
:1014E0000020BDE8F0810000C80100200030180095
:1014F00000BFFEE710B504462CB14FF480510548FB
:10150000FFF7C7FF04E04FF480510248FFF7C3FF25
:1015100010BD0000001401402DE9F04106460F46C1
:1015200014461D462B4622463946304600F076FBCF
:1015300004FB05F00249098800F023FABDE8F081B8
:10154000DA01002001B502E00098401E00900098EA
:101550000028F9D108BD00002DE9F04F8FB00646F4
:10156000884614469946DDE9185B274669E030460F
:10157000384437490988884204DD002608EB090011
:101580001FFA80F84046484432490988884201DD04
:101590000026B0462878802825DD2746B5F800A02B
:1015A0004FEA0A2000EB2A201FFA80FA514605A8CC
:1015B000FFF774FF012105AA0E984B46CDE90020E4
:1015C00002913A461021084600F0B4FC22484B46EE
:1015D0003A464146CDE9000B304600F041F8F0199B
:1015E00086B2AD1C2DE0204604EBD071C1F34F074D
:1015F00028782038C0B20D9000231848C288DDE951
:101600000D015043154A92885043C217049000EBD5
:101610005270124A126802EBE0008DE80B004B4654
:101620003A461821102000F085FC0B484B463A46FC
:101630004146CDE9000B304600F012F8F01986B2B1
:101640006D1C2878002892D10FB0BDE8F08F000003
:10165000CC010020CE01002080030020B801002032
:101660002DE9F05F81468A4614461D46DDE90A6B86
:101670000027B8462B4622465146484600F0CEFA8F
:101680002C2000F04DFC00BF14E04FF000080EE0ED
:1016900016F8011B594504D10848008800F044FCA5
:1016A00003E00748008800F03FFC08F10108A0456E
:1016B000EED37F1CAF42E8D3BDE8F09FDA010020F3
:1016C000D80100202DE9F05F05460E4691469B4665
:1016D00000240FFA89F70320A0EB49000FFA80FAE3
:1016E00087E0BBF1000F40D0A0463BE006EB0802CC
:1016F00091B22A1990B200F0F7FB06EB080291B202
:101700002A1B90B200F0F0FB321991B2A5EB08024F
:1017100090B200F0E9FB321B91B2A5EB080290B247
:1017200000F0E2FBA6EB080291B22A1B90B200F097
:10173000DBFBA6EB080291B22A1990B200F0D4FBB1
:10174000321B91B205EB080290B200F0CDFB3219CA
:1017500091B205EB080290B200F0C6FB08F101005F
:101760000FFA80F8B845C1DD2FE0F21991B22A19BD
:1017700090B200F0B9FBF21991B22A1B90B200F0BE
:10178000B3FB321991B2EA1B90B200F0ADFB321BF1
:1017900091B2EA1B90B200F0A7FBF21B91B22A1B98
:1017A00090B200F0A1FBF21B91B22A1990B200F0A6
:1017B0009BFB321B91B2EA1990B200F095FB3219F3
:1017C00091B2EA1990B200F08FFB601C04B2BAF13A
:1017D000000F05DAA000801D50440FFA80FA07E0E0
:1017E000E01B80000A3050440FFA80FA781E07B2DE
:1017F00000BFBC427FF775AFBDE8F09F2DE9FF4FFA
:1018000083B081464FF0000AD3460598A0EB090546
:1018100004990698461ACDF8049004980090002D7B
:1018200001DD012705E00DB9002702E04FF0FF3789
:101830006D42002E02DD4FF0010806E016B94FF0B0
:10184000000802E04FF0FF387642B54201DD2C4639
:1018500000E034460020029019E0DDE9001000F0BD
:1018600043FBAA44B344A24505DDAAEB040A019850
:10187000384480B20190A34505DDABEB040B009822
:10188000404480B200900298401C80B20290611CDB
:1018900002988842E1DD07B0BDE8F08F2DE9F04104
:1018A00004460D4616461F46DDF81880B8F1000FB5
:1018B0000CD03B4632462946204600F0AFF906FBE5
:1018C00007F01749098800F05CF827E0A019401ECE
:1018D00082B22B4629462046FFF790FFE819401EAA
:1018E00083B2A019401E82B2E819401E81B2204680
:1018F000FFF784FFE819401E83B22246294620469E
:10190000FFF77CFFE919491E8BB2A119491E8AB263
:10191000A119491E88B22946FFF770FFBDE8F08182
:10192000D801002000B597B00121080200F040FE68
:10193000012001900420039080060790002002906F
:101940000490059006900890099008200A901020B5
:101950000B9000200C900E900F9010904FF4805040
:101960001190002012901390149001A815901690D9
:1019700008A8FFF71DFC01210020FFF7FFFB17B0AF
:1019800000BD70B504460D4600262C2000F0C8FAB4
:1019900000BF03E0284600F0C7FA761CA642F9D340
:1019A00070BD000008B50121602000F021FE032079
:1019B0008DF8020018208DF803004FF48040ADF838
:1019C000000069465B48FFF787FC4FF40040ADF824
:1019D000000069465748FFF77FFC0120ADF8000082
:1019E00069465448FFF778FC0220ADF800006946CC
:1019F0005048FFF771FC8020ADF8000069464E4862
:101A0000FFF76AFC4FF48070ADF8000069464A4861
:101A1000FFF762FC4FF40070ADF8000069464648DD
:101A2000FFF75AFC4FF48060ADF800006946424869
:101A3000FFF752FC4FF40060ADF8000069463E48E5
:101A4000FFF74AFC4FF48050ADF8000069463A4871
:101A5000FFF742FC4FF40050ADF8000069463648ED
:101A6000FFF73AFC4FF48040ADF800006946324879
:101A7000FFF732FC4FF40040ADF8000069462E48F5
:101A8000FFF72AFC4FF48070ADF800006946294842
:101A9000FFF722FC4FF40070ADF8000069462548BE
:101AA000FFF71AFC4FF48060ADF80000694621484A
:101AB000FFF712FC03208DF8020018208DF80300B8
:101AC0001020ADF8000069461A48FFF705FC2020F9
:101AD000ADF8000069461748FFF7FEFB8020ADF81F
:101AE000000069461348FFF7F7FB4FF40060ADF8BC
:101AF000000069460F48FFF7EFFB10208DF8030048
:101B000003208DF802000220ADF8000069460A4863
:101B1000FFF7E2FB10208DF8030003208DF8020090
:101B20004FF48050ADF8000069460248FFF7D4FB3F
:101B300008BD0000001401400018014010B5044623
:101B4000072C00DD10BD28480470204604EBD0713E
:101B50004910A4EB410139B9F020244908804FF421
:101B6000A0702349088006E04FF4A0701F49088048
:101B7000F0201F490880362000F0D2F9082141EA00
:101B8000441000F0D1F92A2000F0CAF9002000F03A
:101B9000CBF9002000F0C8F914490988491EC1F3A7
:101BA000072000F0C1F911490978491EC8B200F0B8
:101BB000BBF92B2000F0B4F9002000F0B5F90020AB
:101BC00000F0B2F90A490988491EC1F3072000F064
:101BD000ABF907490978491EC8B200F0A5F92C20D5
:101BE00000F09EF900BFADE7D0010020CC0100203D
:101BF000CE01002010B5FFF7D5FEFFF793FE0120C0
:101C0000FFF778FC00F052F900F038F8024800784D
:101C1000FFF794FF10BD0000D00100202DE9F04136
:101C200004460D4616461F462A2000F079F9201278
:101C300000F07AF9E0B200F077F9A119491EC1F37A
:101C40000F2000F071F9A119491EC8B200F06CF91B
:101C50002B2000F065F9281200F066F9E8B200F0D8
:101C600063F9E919491EC1F30F2000F05DF9E91984
:101C7000491EC8B200F058F9BDE8F08110B5CF2078
:101C800000F04EF9002000F04FF9812000F04CF9EF
:101C9000302000F049F9ED2000F042F9642000F016
:101CA00043F9032000F040F9122000F03DF98120B3
:101CB00000F03AF9E82000F033F9852000F034F91B
:101CC000102000F031F9782000F02EF9CB2000F040
:101CD00027F9392000F028F92C2000F025F9002000
:101CE00000F022F9342000F01FF9022000F01CF966
:101CF000F72000F015F9202000F016F9EA2000F096
:101D00000FF9002000F010F9002000F00DF9B120CB
:101D100000F006F9002000F007F91B2000F004F99C
:101D2000B62000F0FDF80A2000F0FEF8A22000F036
:101D3000FBF8C02000F0F4F8352000F0F5F8C120E1
:101D400000F0EEF8112000F0EFF8C52000F0E8F800
:101D5000452000F0E9F8452000F0E6F8C72000F043
:101D6000DFF8A22000F0E0F8F22000F0D9F800201F
:101D700000F0DAF8262000F0D3F8012000F0D4F8C3
:101D8000E02000F0CDF80F2000F0CEF8262000F083
:101D9000CBF8242000F0C8F80B2000F0C5F80E2086
:101DA00000F0C2F8092000F0BFF8542000F0BCF8A1
:101DB000A82000F0B9F8462000F0B6F80C2000F09A
:101DC000B3F8172000F0B0F8092000F0ADF80F20AC
:101DD00000F0AAF8072000F0A7F8002000F0A4F80F
:101DE000E12000F09DF8002000F09EF8192000F09E
:101DF0009BF81B2000F098F8042000F095F81020C4
:101E000000F092F8072000F08FF82A2000F08CF8FC
:101E1000472000F089F8392000F086F8032000F010
:101E200083F8062000F080F8062000F07DF83020CE
:101E300000F07AF8382000F077F80F2000F074F8FE
:101E4000362000F06DF8C82000F06EF82A2000F06F
:101E500067F8002000F068F8002000F065F8002026
:101E600000F062F8EF2000F05FF82B2000F058F847
:101E7000002000F059F8002000F056F8012000F092
:101E800053F83F2000F050F83A2000F049F8552070
:101E900000F04AF8112000F043F80348FFF752FB26
:101EA000292000F03DF810BDFCBF020010B5022152
:101EB0000748FFF7EEFA40F6FF20FFF743FB022149
:101EC0000348FFF7E8FA40F6FF20FFF73BFB10BDA1
:101ED0000018014070B504460D4601231A462946F4
:101EE0002046FFF79BFE70BD70B505460C460948BD
:101EF000008885420CDA08480088844208DA2146C6
:101F00002846FFF7E7FF054801880120FFF739FD64
:101F100070BD0000CC010020CE010020D8010020BF
:101F20004FF0C041088070470149088070470000A9
:101F3000000002602DE9FC4F0C461E464FEA004AA5
:101F40009AFBF2FA0AF1010ACDF804A04FEA044A1A
:101F50009AFBF6FA0AF1010ACDF800A04FF0000949
:101F6000202801DBBDE8FC8F00FB04FABAF1000F6A
:101F700000D1F7E700FB04FABAF5806F00DBF1E768
:101F800002FB06FABAF1000F00D1EBE702FB06FAFA
:101F9000BAF5804F00DBE5E7454BDDF834A0BAF138
:101FA000000F2BD100211FE0002517E0DDF82CA049
:101FB0001AF801A04FF0800B4BFA05FB0AEA0B0A56
:101FC000BAF1000F02D04FF0010A01E04FF0000A11
:101FD00003F801AB05F1010A1FFA8AF5082DE5DBCC
:101FE00001F1010A1FFA8AF104FB00FA4FEAEA7BC9
:101FF0000AEB5B7BB1EBEB0FD6DB2AE000211FE0A5
:10200000002517E0DDF82CA01AF801A04FF0800B96
:102010004BFA05FB0AEA0B0ABAF1000F02D04FF0A7
:10202000010A01E04FF0000A03F801AB05F1010AD3
:102030001FFA8AF5082DE5DB01F1010A1FFA8AF182
:1020400004FB00FA4FEAEA7B0AEB5B7BB1EBEB0F98
:10205000D6DB174B174F4FF0000C1AE04FF0000A79
:102060004FEA194B00FB0B3ED0460AE00EEB1A4B31
:102070009BF800B007F808B0DDF804B0DA4408F1C6
:1020800001089045F2D3DDF800B0D94417440CF1B3
:10209000010CB445E2D3DFF81CA0CDF830A0DDF888
:1020A00030A00AF1010ACDF830A000BF5AE70000C5
:1020B000804300208003002008B50121142000F097
:1020C00097FA0120ADF8000004208DF8030069465E
:1020D0000748FFF701F94FF40050ADF80000042065
:1020E0008DF8030069460348FFF7F6F808BD0000C5
:1020F0000008014000100140024A1080024A11808D
:1021000070470000D8010020DA0100200149086072
:1021100070470000D401002001490880704700008A
:10212000D80100202DE9FC47A048FFF7EFFF002170
:102130001F20FFF7E1FF00209DA110231A46CDE9E3
:10214000001019461420FFF707FA00209A492023AF
:102150001A46CDE9001019461420FFF7FDF99748FB
:10216000006897490968884209D34FF480719548FF
:10217000FFF791F94FF47840FFF7CEFF04E04FF4FA
:1021800080719048FFF785F900208FA110231A462F
:10219000CDE9001050211420FFF7DEF900208C4912
:1021A00020231A46CDE9001060211420FFF7D4F94E
:1021B0004FF47840FFF7B0FF0020864910231A46FD
:1021C000CDE9001080211420FFF7C6F9824800886D
:1021D000FEF77AF881464FF08B41FDF7C5FF0446C4
:1021E000FEF777F807464FF066327C4BFDF7FAFFB3
:1021F0000546FEF781F87A4908604FF0804178483B
:102200000068FEF795F823D24FF6FF70FFF784FFC2
:1022100073480068FEF75DF8044622460B4671A13C
:10222000754800F07BFF0020734910231A46CDE962
:102230000010A0211420FFF78FF900206FA11823B0
:102240001A46CDE90010C0211420FFF785F921E0DE
:102250001F20FFF761FF62480068FEF73AF8044666
:1022600022460B465FA1644800F058FF00206249F7
:1022700010231A46CDE90010A0211420FFF76CF9B5
:10228000002060A118231A46CDE90010C0211420B7
:10229000FFF762F94FF4FC60FFF73EFF00205BA1FF
:1022A00010231A46CDE90010E0211420FFF754F95D
:1022B00000205CA110231A46CDE90010F021142063
:1022C000FFF74AF900205BA110231A46CDE9001060
:1022D00019011420FFF740F900205BA110231A46D2
:1022E000CDE900104FF488711420FFF735F94FF451
:1022F0007840FFF711FF0123EF2219461846FFF738
:102300007DFA4FF49E73EF2219460120FFF776FA0B
:102310004FF49E73012211461046FFF76FFA4FF4F7
:102320009E73EF2201211046FFF768FA4FF6E07026
:10233000FFF7F2FE0623EA2219461846FFF75EFA77
:1023400040F23713EA2219460620FFF757FA40F207
:102350003713062211461046FFF750FA40F23713A2
:10236000EA2206211046FFF749FA1F20FFF7D4FEA4
:102370000B23E52219461846FFF740FA4FF49973EC
:10238000E52219460B20FFF739FA4FF499730B2217
:1023900011461046FFF732FA4FF49973E5220B21EC
:1023A0001046FFF72BFABDE8FC870000B0010020C3
:1023B000CAAAB6C8A3BA00006B000020980100208A
:1023C0009C01002000080140CEC2B6C8A3BA00009C
:1023D00007000020CF000020A401002066660A400C
:1023E000000000204E6F772041442076616C7565B7
:1023F00020256620560000003301002020B0D7CCF5
:10240000EC00000020BADAD2B900000041524DB50C
:10241000C4D6C7C4DCBCD2BED3BCE0B2E2CFB5CD1B
:10242000B3000000D0D5C3FBA3BABAC2B1FEC7AC9B
:1024300000000000D1A7BAC5A3BA3230313831311B
:102440003034363333000000D6B8B5BCBDCCCAA694
:10245000A3BAB6A1D4AA000008B50121082000F053
:10246000C7F82020ADF8000010208DF803000320ED
:102470008DF8020069460F48FEF72EFF0120ADF8E7
:10248000000069460B48FEF727FF0220ADF8000068
:1024900069460848FEF720FF20210648FEF7FBFFAB
:1024A00001210448FEF7F7FF02210248FEF7F3FF7F
:1024B00008BD0000000C014000BFFEE7704708B5F2
:1024C0004FF4C06000F05CF81D208DF80000002083
:1024D0008DF8010002208DF8020001208DF8030024
:1024E000684600F015F808BD08B54FF4A06000F08C
:1024F00047F825208DF8000001208DF801008DF8A7
:1025000002008DF80300684600F002F808BD0000E4
:1025100070B5002100230F22C47804B3154C246841
:1025200004F4E064C4F5E064210AC1F10403CA4084
:10253000447804FA03F184781440214309010E4CD5
:102540000678A155047804F01F050124AC400578F5
:102550006D11AD0005F1E025C5F8004109E00478F2
:1025600004F01F050124AC40044D0678761145F8AF
:10257000264070BD0CED00E000E400E080E100E0EA
:1025800002490143024A1160704700000000FA0549
:102590000CED00E07047000001460020034A50683F
:1025A00020F4404008435060704700000010024093
:1025B00029B1064A52690243044B5A6104E0034AB6
:1025C00052698243014B5A6170470000001002407B
:1025D00029B1064AD2690243044BDA6104E0034A96
:1025E000D2698243014BDA6170470000001002405B
:1025F00029B1064A92690243044B9A6104E0034AF6
:1026000092698243014B9A617047000000100240BA
:1026100030B500210022002400232D4D6D6805F007
:102620000C0121B1042905D0082923D105E0294D49
:10263000056022E0274D05601FE0254D6D6805F41B
:102640007012234D6D6805F48034022505EB92422B
:102650001CB9214D554305600BE01D4D6D6805F417
:1026600000351DB11C4D5543056002E0194D554321
:10267000056002E0174D056000BF00BF144D6D6896
:1026800005F0F0010909154D6B5C0568DD404560FA
:102690000F4D6D6805F4E061090A104D6B5C4568EB
:1026A000DD4085600A4D6D6805F46051C90A0B4D27
:1026B0006B5C4568DD40C560054D6D6805F44041C3
:1026C000890B074D6B5CC568B5FBF3F5056130BD43
:1026D0000010024000127A0000093D005203002061
:1026E0006203002021B1028842F04002028004E02F
:1026F00002884FF6BF731A400280704770B50546D6
:102700000C46164601211048FEF7C3FE032000F0D8
:102710007DF8C4F3074000F079F8C4F3072000F017
:1027200075F8E0B200F072F804E0FF2000F06EF8F7
:1027300028706D1C301EA6F101018EB2F5D1012169
:102740000148FEF7A8FE70BD0010014000B587B03B
:1027500001210803FFF74CFF0121D420FFF748FFB8
:102760000120ADF8040003208DF8060010208DF83C
:10277000070001A92248FEF7AFFD2020ADF80400B4
:1027800018208DF8070001A91E48FEF7A5FD40207E
:10279000ADF8040001A91B48FEF79EFD8020ADF8AE
:1027A000040001A91748FEF797FD01211448FEF720
:1027B00072FE0020ADF808004FF48270ADF80A00F8
:1027C0000020ADF80C000220ADF80E000120ADF89D
:1027D00010004002ADF812000820ADF814000020EF
:1027E000ADF816000720ADF8180002A9064800F061
:1027F00057F801210448FFF775FF07B000BD00003E
:1028000000100140000801400030014010B50446AE
:102810004FF48050194908600AE018490868411EC1
:10282000164A116020B9002000F058F8C0B210BD5F
:102830000221134800F026F80028EED02146104867
:1028400000F02CF84FF480500C4908600AE00B4966
:102850000868411E094A116020B9012000F03EF8C5
:10286000C0B2E4E70121064800F00CF80028EED0E1
:10287000034800F010F8C0B2D9E70000AC01002016
:10288000003001400246002013890B400BB10120AB
:1028900000E00020704701468889704781817047B9
:1028A00010B50022028802F441520B884C88234361
:1028B0008C882343CC8823430C8923434C892343AE
:1028C0008C892343CC8923431A430280838B4FF2A4
:1028D000FF74234083830B8A038210BD10B5044626
:1028E000214602A000F00AFC002010BD3C3C2D4611
:1028F0004C4153482D4552524F522D3E3E2053508D
:102900004920B5C8B4FDB3ACCAB1216572726F720B
:10291000436F6465203D2025640A0000704710B5B0
:1029200000F002F810BD00000CB5002001900090EE
:102930003348006840F480303149086000BF3048B7
:10294000006800F4003000900198401C019000984D
:1029500018B90198B0F5A06FF1D12948006800F4CA
:10296000003010B10120009001E00020009000989C
:10297000012843D12348006840F010002149086035
:102980000846006820F0030008600846006840F030
:10299000020008601A4840681949486008464068C3
:1029A00048600846406840F48060486008464068D7
:1029B00020F47C1048600846406840F4E810486005
:1029C0000846006840F08070086000BF0C4800684E
:1029D00000F000700028F9D00948406820F003009A
:1029E000074948600846406840F00200486000BF60
:1029F0000348406800F00C000828F9D10CBD000025
:102A0000001002400020024030B50146B1F1807F45
:102A100001D3012030BD21F07F40401E4FF0E02265
:102A2000506150170F22002807DA13071D0E094BBB
:102A300000F00F04241F1D5503E013071C0E064B66
:102A40001C5400BF00204FF0E0229061072010616D
:102A50000020DFE718ED00E000E400E031B50F48AA
:102A600000680F49B0FBF1F52846FFF7CDFF0024C1
:102A700008E000BF4FF0E020006900F4803000283B
:102A8000F8D0641C00988442F3D34FF0E020006932
:102A900020F001004FF0E021086138BD68030020FC
:102AA00040420F0010B500F025FA10BD10B50A48DD
:102AB00000680A49B0FBF1F42046FFF7A5FF08B112
:102AC00000BFFEE74FF0E020006920F001004FF06A
:102AD000E021086110BD00006803002040420F00A3
:102AE00010B51348006840F001001149086008461D
:102AF0004068104908400E494860084600680E4981
:102B000008400B4908600846006820F480200860EF
:102B10000846406820F4FE0048604FF41F008860BB
:102B2000FFF7FDFE4FF000600449086010BD000093
:102B3000001002400000FFF8FFFFF6FE08ED00E085
:102B400010B501211D4800F062F8B0B34FF080418C
:102B50001B480068FDF7ECFB21D21A4800881A498F
:102B60000988884225DA19480088401C17490880DE
:102B700017481449098830F8110010493831088085
:102B80001248008813490988884212DD0D480088E0
:102B9000401C0C49088000200C49088009E00020F6
:102BA000084908800A48098830F81100034938317B
:102BB00008800121014800F01BF810BD000400400E
:102BC00000000020A601002050030020A8010020E2
:102BD000DE010020DC01002021B1028842F08002E9
:102BE000028004E002884FF67F731A40028070472B
:102BF000CA430282704721B1028842F0010202807A
:102C000004E002884FF6FE731A400280704730B528
:102C10000246002000230024158A05EA0103958955
:102C200005EA010413B10CB1012000E0002030BD21
:102C30001AB183890B43838102E083898B438381AB
:102C40007047000070B5002400220023058C4FF669
:102C5000EF7635400584028C8388048B48F6FF7537
:102C60002C404FF6FF452C400D884FF6FF7606EAC4
:102C700005252C434FF6DF752A400D8906EA051518
:102C80002A434D8806EA05152A43154DA84202D06D
:102C9000144DA8421DD14FF67F752A404D894FF63D
:102CA000FF7606EA05152A434FF6BF752A408D8840
:102CB00006EA05152A434FF6FF352B404FF2FF7504
:102CC0002B408D8906EA85052B43CD8906EA8505CB
:102CD0002B4383800483CD880587028470BD000068
:102CE000002C0140003401400A460021018B4FF2C4
:102CF000FF7319404FF6FF7303EA02231943018360
:102D000070470000002202881D4B98420ED01D4BD8
:102D100098420BD0B0F1804F08D01B4B984205D0A1
:102D20001A4B984202D01A4B984204D14FF68F7337
:102D30001A404B881A43174B984207D0164B9842BB
:102D400004D04FF6FF431A40CB881A4302808B8889
:102D500083850B8803850A4B98420BD0094B984218
:102D600008D00E4B984205D00D4B984202D00D4B27
:102D7000984201D10B7A03860123838270470000B9
:102D8000002C0140003401400004004000080040D5
:102D9000000C0040001000400014004000400140C2
:102DA000004401400048014010B500F003F800F075
:102DB00021F810BD08B501210920FFF719FC0121F8
:102DC0000920FFF715FC01210848FEF711FB202020
:102DD000ADF8000018208DF8030003208DF80200E4
:102DE00069460348FEF778FA08BD000000081A009B
:102DF000000C014000B587B001210220FFF7E8FB7D
:102E000040F2FF30ADF81400C720ADF810000020EC
:102E1000ADF81600ADF8120004A91448FFF772FFD0
:102E20006020ADF800000120ADF802000020ADF8F0
:102E300006000220ADF8080069460C48FFF702FFC3
:102E400008210A48FFF750FF01210848FFF7C4FE98
:102E500001210648FFF7CFFE012211460348FFF784
:102E6000E7FEFFF72CFB07B000BD000000040040A8
:102E70001CB56846FDF7D4FE012813D19DF801303A
:102E80009DF800200BA10F4800F048F99DF8033091
:102E90009DF802200CA10F4800F040F99DF80200B7
:102EA0000D4908600D480EA10268114800F036F97E
:102EB0001CBD0000202025642E256420A3A55248B7
:102EC000000000006B000020202025642E256420D7
:102ED000A1E6000007000020980100209C010020CE
:102EE000CEC2B6C8203C20256420A1E60000000028
:102EF000CF0000200448006820B103480068401E4D
:102F00000149086070470000A001002021B18289BA
:102F100042F40052828104E082894DF6FF731A4028
:102F20008281704700B585B001210420FFF760FB66
:102F300001218803FFF75CFB4FF40070ADF810002F
:102F400018208DF8130003208DF8120004A91748EB
:102F5000FEF7C2F94FF48060ADF8100004208DF840
:102F6000130004A91148FEF7B7F94FF4E1300090BF
:102F70000020ADF80400ADF80600ADF80800ADF88B
:102F80000C000C20ADF80A006946094800F044F82E
:102F9000FFF7AAFA012240F22551054800F017F880
:102FA00001210348FFF7B2FF05B000BD0008014052
:102FB0000038014002460020B1F5007F00D100BF7B
:102FC00013880B400BB1012000E000207047F0B5E2
:102FD0000346002400260025002040F66A17B94267
:102FE00000D100BF1846C1F3421401F01F060127AB
:102FF00007FA06F5012C01D10C3004E0022C01D1B6
:10300000103000E014301AB107682F43076002E067
:103010000768AF430760F0BD2DE9F04786B005466D
:103020000E460024A24600BFA1460027B08900B189
:1030300000BF2F462C8A4CF6FF700440F0880443F2
:103040002C82AC894EF6F3100440B08831890843D5
:10305000718908430443AC81AC8A4FF6FF400440B9
:10306000B0890443AC8201A8FFF7D2FA1F48874217
:1030700002D1DDF810A001E0DDF80CA0A88900F471
:10308000004040B10AEBCA0000EB0A103168490069
:10309000B0FBF1F807E00AEBCA0000EB0A10316858
:1030A0008900B0FBF1F86420B8FBF0F004012009BE
:1030B000642101FB1089A88900F4004040B132204E
:1030C00000EBC900B0FBF1F000F00700044308E09A
:1030D000322000EB09106421B0FBF1F000F00F008A
:1030E00004432C8106B0BDE8F087000000380140A1
:1030F000C1F308028280704700BFFEE70FB4054BA2
:1031000010B503A9044A029800F0EEF810BC5DF86F
:1031100014FB0000293B00087C0300200FB4084B7F
:1031200010B504A902AA039800F0DEF8044602A92B
:10313000002000F070FC204610BC5DF814FB00007D
:10314000173A000802E008C8121F08C1002AFAD185
:1031500070477047002001E001C1121F002AFBD117
:10316000704700002DE9FF5F82B00021DDE90430E7
:10317000020DDDF840B0034318D044F61050A2F21F
:10318000FF3242431514119801281FD0A5EB0B0004
:10319000401C5FEA000A4FF000064E4FDFF83891FE
:1031A000B046504615D5CAF1000413E01198012429
:1031B0004AA3012801D16FEA0B010298119AC0E9D4
:1031C0000031C0E9024206B0BDE8F09FCBF100003B
:1031D000DFE704460021404A491842EB0450CDE99C
:1031E000001012E0E00707D032463B464046494611
:1031F000FCF7F8FF8046894632463B4610461946A2
:10320000FCF7F0FF06460F466410002CEAD1DDE91A
:103210000401DDE90023BAF1000F06DAFCF7E2FF52
:1032200042464B46FCF7DEFF05E0FDF70DFA42464D
:103230004B46FDF709FA04460E460022284BFDF7DF
:103240008BFA03D84FF0FF30014607E00022254BF0
:1032500020463146FDF751F9FDF765FA102409E0E3
:10326000002C0ADB0A220023FDF782F8039B303290
:103270001A55641E50EA0102F2D1641C039AC4F18B
:1032800011031444119A012A03D0012208430DD1DD
:103290000AE0084304D000204FF0110B119072E7B0
:1032A000A3EB0B056D1E0DE05B4504DD4FF0000246
:1032B00005F1010504E003DA4FF00002A5F1010574
:1032C000002AECD002981199C0E90231C0E900450A
:1032D00079E70000000014400000F03F30000000DB
:1032E0000000F0430000E03F2DE9FF4F95B09B4602
:1032F0008946064600250FE2252877D10024274677
:10330000F84A0121059400E0044316F8013F203BF0
:1033100001FA03F01042F7D130782A2811D06FF06B
:103320002F033078A0F13002092A16D8059A44F00C
:10333000020402EB820203EB42021044761C059069
:10334000EFE759F8042B0592002A03DA504244F4BF
:103350000054059044F00204761C30782E2816D1D3
:1033600016F8010F44F004042A280DD06FF02F0244
:103370003078A0F13003092B09D807EB870302EB63
:103380004303C718761CF3E759F8047B761C3078A2
:103390006C280FD006DC4C2817D068280DD06A287E
:1033A00014D104E0742810D07A280FD10DE044F431
:1033B00000140AE044F4801401E044F440147278EC
:1033C000824202D104F58014761C761C307866287F
:1033D0000BD013DC582877D009DC002875D045289D
:1033E000F6D04628F4D047281AD19DE118E063288A
:1033F00035D0642879D0652812D195E1702873D032
:1034000008DC6728F1D069286FD06E280DD06F28AE
:1034100006D1B5E073282CD0752875D0782874D0E3
:103420005A46179990476D1C75E1C4F30250022863
:1034300009D003280DD0D9F8001004280DD00D6054
:1034400009F1040967E1D9F80010EA17C1E900524F
:10345000F6E7D9F800100D80F2E70D70F0E719F8E3
:10346000041B8DF8001000208DF80100EA460120B1
:1034700003E059F804AB4FF0FF3061074FF0000153
:1034800002D40DE008F101018846B9420FDA804507
:10349000F8DB1AF808100029F4D108E008F101015E
:1034A00088468142FADB1AF808100029F6D10598FF
:1034B0005B46A0EB080721463846179A00F094FABD
:1034C000284400EB080507E04DE029E10DE01AF87B
:1034D000010B5A4617999047B8F10108F7D25B469D
:1034E00021463846179A13E142E00A220092C4F3BB
:1034F00002524FF0000A022A08D059F804CB032ADE
:103500004FEAEC710AD00DE029E02AE009F1070149
:1035100021F00702F2E802C1914609E00FFA8CFCA3
:103520004FEAEC71042A03D14FFA8CFC4FEAEC719C
:10353000002907DA0A460021DCF1000C61EB0201E8
:103540002D2202E0220504D52B228DF80420012231
:1035500003E0E20701D02022F7E7904659E00A2174
:1035600002E010220DE010214FF0000A00910BE064
:1035700010224FF0000A44F004040827009203E0F0
:1035800008224FF0000A0092C4F30252022A05D02A
:1035900059F804CB0021032A08D009E009F10701FA
:1035A00021F00702F2E802C1914605E01FFA8CFC07
:1035B000042A01D10CF0FF0C4FF00008220728D597
:1035C000702806D0009B83F0100353EA0A0305D04D
:1035D0000EE040228DF80420012208E05CEA01029E
:1035E00006D030228DF804208DF805000222904686
:1035F000009B83F0080353EA0A030AD15CEA010244
:1036000001D1620705D530228DF804204FF0010862
:103610007F1E582804D034A003900EA802900DE01D
:1036200036A0F9E753466046009AFCF7A1FE8446AF
:103630000398825C0298401E029002705CEA0100CE
:10364000F0D1029806A9081A00F1200A600702D5F5
:1036500024F4803400E00127574502DDA7EB0A007F
:1036600000E0002000EB0A01009005984144401A58
:103670000590E00306D45B462146179A059800F0B2
:10368000B3F90544002706E001A85A46C05D179922
:1036900090476D1C7F1C4745F6DBE0030CD55B466D
:1036A0002146179A059800F09FF9054404E0302060
:1036B0005A46179990476D1C0099481E00900029A2
:1036C000F5DC08E0029802995A460078491C0291FC
:1036D000179990476D1CBAF10001AAF1010AF1DCBB
:1036E00065E10000092801003031323334353637C6
:1036F000383961626364656600000000303132333E
:1037000034353637383941424344454600000000DD
:1037100000F058F90544761C307800287FF4ECADB1
:1037200019B02846BDE8F08F620700D4062709F1DA
:10373000070222F0070CFCE80223E14603F00048F0
:103740005FEA080C02D00FF2702C0DE05FEA045C17
:1037500002D50FF2682C07E05FEAC47C02D00FF2BA
:10376000602C01E0AFF2700C4FF0FF3823F0004303
:10377000CDF850C065280CD006DC452809D0462875
:103780001DD047283DD13DE0662818D067287ED15E
:1037900038E00021112F01DB112000E0781CCDE979
:1037A000000106A90EA8FFF7DDFCDDE90F010E9A66
:1037B00003910021009207F1010A04914DE04FF0BE
:1037C00000400097CDE9011006A90EA8FFF7CAFC3A
:1037D000DDE90F0203920E9B11990022DDF80CA087
:1037E0000093049211B9791C00EB010AB7EB0A00AF
:1037F00004D4C0F1FF3007F1010A0490AAEB0700DE
:10380000019044E0012F00DA01270021112F01DD92
:10381000112000E03846CDE9000106A90EA8FFF707
:10382000A1FCDDE90F010E9A0391002104910092A1
:10383000BA4621070CD40399514500DA8A46BAF1F9
:10384000010F05DD009AAAF10101515C302908D071
:10385000B84202DA10F1040F06DA0121CDE90110B5
:1038600015E0AAF10101E9E7002805DC049901440B
:103870000491AAEB000102E0411C514500DD8A469B
:103880000499401A401C01904FF00040029020071C
:1038900004D40198504501DBCDF8048000208DF858
:1038A0004F0002980DF14F07B0F1004F25D02B20AB
:1038B0000E9002984FF0020800280CDA4042029065
:1038C0002D200E9007E00A210298FCF73BFD3031D5
:1038D000029007F8011DB8F10001A8F10108F2DC1F
:1038E00002980028EFD1791E0E980870307800F009
:1038F000200040F0450007F8020D12A8C01B00F19F
:1039000007081498007800B1012000EB0A01019823
:1039100001EBE07105984144401A401E0590E00318
:1039200006D45B462146179A059800F05DF80544D9
:103930001498007818B15A46179990476D1CE00307
:1039400024D55B462146179A059800F04DF80544AA
:103950001CE00498002807DBDDE90301884203DD51
:103960000098405C179901E0179930205A4690471B
:10397000049805F10105401C04900198401E019037
:1039800004D12E205A46179990476D1CBAF10001B8
:10399000AAF1010ADDDC05E017F8010B5A46179978
:1039A00090476D1CB8F10001A8F10108F4DC5B46FA
:1039B0002146179A0598ABE62D0000002B00000069
:1039C000200000002DE9F041044600251E46174660
:1039D000880404D405E039462020B0476D1C641EDD
:1039E000F9D52846BDE8F0812DE9F04104460025CF
:1039F0001E469046C80301D5302700E020278804E2
:103A000004D505E041463846B0476D1C641EF9D523
:103A10002846BDE8F0810A68531C0B60107070479F
:103A200010B5A02000F0C2F808B9012010BD00F0C8
:103A30004DF90020FAE72DE9F04106460F461546FC
:103A400000F02CF9A02000F0FFF800F04FF900B1D1
:103A500025E0F8B200F0F8F800F048F900B11EE0F7
:103A600000F01CF9A12000F0EFF800F03FF900B1E0
:103A700015E000240CE000F0C5F83055681EA042A7
:103A800002D000F063F801E000F0A8F8601C84B2F6
:103A9000AC42F0DB00F01AF90120BDE8F08100F043
:103AA00015F90020F9E72DE9F047074688469146C9
:103AB000464600242CE014B106F00700E8B900F0F7
:103AC00005F900250AE000F0E9F8A02000F0BCF8B4
:103AD00000F00CF900B904E0681C85B2B5F57A7FF6
:103AE000F1DB00BFB5F57A7F00D118E0F0B200F04D
:103AF000ABF800F0FBF800B111E0385D00F0A4F87D
:103B000000F0F4F800B10AE0701C86B2601C84B2C8
:103B10004C45D0DB00F0DAF80120BDE8F08700F07A
:103B2000D5F80020F9E7000070B504460D46E1B273
:103B30000548FFF7DDFA00BF80210348FFF73AFA96
:103B40000028F9D0204670BD0038014010B5802013
:103B50000949086000F03AF840200749091F086049
:103B600000F034F840200449086000F02FF880206D
:103B70000149091F086010BD140C014008B501215E
:103B80000820FEF735FDC020ADF8000003208DF8B9
:103B9000020014208DF8030069460348FDF79CFBE2
:103BA00000F094F808BD0000000C014070B5044618
:103BB000FFF7E4FF00F072F8204600F045F800F04F
:103BC00095F8054600F082F8284670BD002001E017
:103BD000411CC8B20A28FBDB7047000010B58020EA
:103BE00007490860FFF7F2FF402005490860FFF72A
:103BF000EDFF40200249091D0860FFF7E7FF10BDF7
:103C0000100C014070B50024002516E06006040E7B
:103C100040200C490860FFF7D9FF0A4808380068BF
:103C200000F0800008B1601CC4B240200549091DA5
:103C30000860FFF7CBFF681CC5B2082DE6DB204605
:103C400070BD0000100C014070B50446002520E056
:103C500004F0800018B180200F49086003E0802044
:103C60000D49091D0860FFF7B1FF40200A490860AF
:103C7000FFF7ACFF40200849091D0860072D02D15D
:103C80008020091F08606006040EFFF79FFF681C74
:103C9000C5B2082DDCDB70BD100C014010B58020D2
:103CA0000949086040200860FFF790FF802006491E
:103CB000091D0860FFF78AFF40200349091D0860BD
:103CC000FFF784FF10BD0000100C014010B58020EC
:103CD000054908604020091F0860FFF777FF802032
:103CE0000149091F086010BD140C014010B5802067
:103CF0000C490860FFF76AFF40200A490860FFF797
:103D000065FF08480838006800F0800008B1012409
:103D100000E0002440200349091D0860FFF756FF1A
:103D2000204610BD100C0140FDF764FFFEF7BEFEFB
:103D3000FFF7F8F8FCF71AFFFDF704FAFEF7BCF9F5
:103D4000FDF77EF8FEF788FBFCF7A8FEFFF72CF8DE
:103D50000620FDF7F3FE00F01FF8FDF7C3F80B484F
:103D6000FEF7D4F900214FF47840FEF7C5F9084872
:103D700003880848028800210846FDF7CDFB03E0D0
:103D8000FFF776F8FEF7CEF9FAE70000B001002061
:103D9000CE010020CC01002010B5FFF741FE10B984
:103DA0000AA0FFF7ABF9022200210E48FFF743FEFD
:103DB00018B90DA0FFF7A2F906E010A0FFF79EF9D1
:103DC000084800781449086010BD0000C3BBD3D078
:103DD000BCECB2E2B5BDB4AED0D0454550524F4D6B
:103DE000210D0A0005000020B6C1656570726F6D77
:103DF000B3F6B4EDA3A10D0A00000000B6C16565DD
:103E000070726F6DB3C9B9A6A3ACCAFDBEDDC8E7B9
:103E1000CFC2A3BA0D0A00009C01002010B5FFF725
:103E2000FFFD20B90DA0FFF769F9002010BD114872
:103E3000007811490870022200210F48FFF733FE75
:103E400020B90EA0FFF75AF90020EFE710A0FFF706
:103E500055F91448FEF702FE00BFE7E7C3BBD3D015
:103E6000BCECB2E2B5BDB4AED0D0454550524F4DDA
:103E7000210D0A009C01002004000020D0B46565DB
:103E800070726F6DB3F6B4EDA3A10D0A00000000CF
:103E9000D0B4656570726F6DB3C9B9A6A3A10D0AE0
:103EA00000000000A08601000000000000000000EB
:103EB000000000000000000000000018181818188A
:103EC0001808000818000000000000342424240012
:103ED00000000000000000000000000016247F2405
:103EE00024247E2424000000000000083E68486866
:103EF0001C1612127C10100000000061D29674088B
:103F000010162949C6000000000000003C64643817
:103F1000724ACE467F0000000000001818181800F2
:103F2000000000000000000000000004081810302D
:103F30003030301010180C04000000201008080C5D
:103F40000404040C08181020000000080A341C6A3D
:103F50000800000000000000000000000000181829
:103F6000187F181818000000000000000000000072
:103F700000000018180830000000000000000000D9
:103F8000003C0000000000000000000000000000F5
:103F900000000018180000000000000206040C08D1
:103FA0000810102020400000000000003C6642473E
:103FB0005B7342663C00000000000000187848086F
:103FC000080808087E000000000000003C460606C5
:103FD000040810207E000000000000007C0606049B
:103FE0003C0202067C000000000000000C1C1424AF
:103FF0006444FF0404000000000000007E60606074
:104000007E0202067C000000000000001E306048B6
:10401000764242623C000000000000007E0206047E
:104020000C08181030000000000000003C6242360E
:104030001C6642423C000000000000003C66424218
:10404000661A020478000000000000000000181842
:104050000000001818000000000000000000181800
:1040600000000018180830000000000000000418CC
:104070003060100C0600000000000000000000008E
:104080007E007E00000000000000000000003018EC
:1040900004060C1020000000000000301C0606067C
:1040A00018100010100000000000001C224141DD2B
:1040B000B5A5A5AF94C0403C00000000181C3424F6
:1040C00026627E43C1000000000000007C4642469C
:1040D0007C4242427C000000000000001E20404064
:1040E000404040603E000000000000007C4642432B
:1040F0004343424678000000000000007E6060609C
:104100007E6060607E000000000000007E606060F5
:104110007E60606060000000000000001E604040A3
:10412000CE4242623E000000000000004242424295
:104130007E42424242000000000000007E18181833
:10414000181818187E000000000000007C04040409
:104150000404044478000000000000004244485079
:1041600070584C4442000000000000002020202035
:10417000202020203E000000000000006266675FF3
:104180005B5BC1C1C10000000000000062627252AE
:104190005A4A4E4646000000000000003C6243C3FD
:1041A000C3C343623C000000000000007C46424262
:1041B0004678404040000000000000003C6243C3DD
:1041C000C3C343623C180F00000000007C666266B7
:1041D0007C6C646662000000000000003E6040608D
:1041E0001C0602027C000000000000007F18181866
:1041F000181818181800000000000000424242423F
:10420000424242623C00000000000000C1434262A2
:104210002624341C1800000000000000C1C14149E0
:104220005B5B7666660000000000000043663418A1
:10423000181C2466C300000000000000C142663460
:104240001C18181818000000000000007E02040C62
:10425000181020607E0000000000001C10101010DC
:10426000101010101010101C000000402020101022
:1042700008080C04060200000000003C0C0C0C0CAA
:104280000C0C0C0C0C0C0C3C00000000181C2462E4
:10429000000000000000000000000000000000001E
:1042A00000000000000000FF0000002010000000DF
:1042B00000000000000000000000000000003C06BC
:1042C000023E42467A0000000000004040405C622E
:1042D000424242427C0000000000000000001E201C
:1042E000604060203E0000000000000202023E62CA
:1042F000424242663A0000000000000000003C62BA
:10430000427E40603E0000000000000F1810107E4A
:1043100010101010100000000000000000003F66A8
:10432000426658403E43423C0000004040405C62D0
:104330004242424242000000000000181800780883
:10434000080808087E000000000000040C007C043F
:104350000404040404040C78000000606060626CD3
:10436000787068646200000000000078080808089F
:10437000080808087E000000000000000000764BDE
:104380004B4B4B4B4B0000000000000000005C62F8
:1043900042424242420000000000000000003C6235
:1043A000424342623C0000000000000000005C62EA
:1043B000424242427C4040400000000000003E6219
:1043C000424242663A0202020000000000006E72A1
:1043D00063606060600000000000000000003E209C
:1043E000203C06027C000000000000001010FE10BF
:1043F000101010101E0000000000000000004242DB
:10440000424242663A0000000000000000004342C1
:104410006624341818000000000000000000C1C12C
:104420005B5A5E6666000000000000000000622625
:104430001C181C266200000000000000000043421F
:104440006624341C181830E00000000000007E06CE
:104450000C1810207E0000000000000E1810101034
:10446000307010101010180E000008080808080816
:10447000080808080808080800000030180808089C
:104480000C0E0808080818300000000000000000AA
:10449000714B06000000000000000000000000005A
:1044A000000000000000000000000000000000000C
:1044B00000000000000000000000000000000000FC
:1044C00000000000000000000000000000000000EC
:1044D0000000038001800180018001800180018053
:1044E0000180018001800000000003C003C00000C3
:1044F00000000000000000000000000000000000BC
:1045000000000E700E700E700C30000000000000F5
:10451000000000000000000000000000000000009B
:10452000000000000000000000000000000000008B
:10453000000000000618063806307FFE0C300C30F4
:104540000C300C307FFE0C601C601860186000009E
:10455000000000000000000000000000000000005B
:1045600000C000C00FF83CC831C031803D801F80C2
:1045700003F001F8031C030C031C3FF83FE00700A5
:104580000600000000000000000000000000000025
:104590001C007E0E630C631863307E6000C00180D7
:1045A0000300077C0EE61CC618C630C6607C0000FF
:1045B00000000000000000000000000000000000FB
:1045C00000000FE01CF0387038701C601FC00F0036
:1045D0003F8C71CC60EC607C70383CFC1FCE0000DE
:1045E00000000000000000000000000000000000CB
:1045F000000003C001800180018000000000000075
:1046000000000000000000000000000000000000AA
:10461000000000000000000000000000000000009A
:10462000003000E001C00180030007000600060022
:104630000E000E000E000E000600070003000380AF
:1046400001C000E000300000000000000000000099
:104650000C0006000380018001C000E000600060E3
:104660000070007000700060006000E000C0018019
:10467000038006000C0000000000000000000000A5
:104680000000018011881DB803C007E03DBC01880F
:104690000180000000000000000000000000000099
:1046A000000000000000000000000000000000000A
:1046B00000000000000000000180018001800180F6
:1046C00001807FFE018001800180018000000000E8
:1046D00000000000000000000000000000000000DA
:1046E00000000000000000000000000000000000CA
:1046F000000000000000000003C003C001C001C0B2
:1047000003801F0000000000000000000000000007
:104710000000000000000000000000000000000099
:1047200000000FF00000000000000000000000008A
:104730000000000000000000000000000000000079
:104740000000000000000000000000000000000069
:10475000000000000000000003C003C003C0000010
:104760000000000000000000000000000000000049
:104770000000001800380030006000E000C001C0F8
:1047800001800300030006000E000C001C0018004E
:1047900030000000000000000000000000000000E9
:1047A000000001800FF01C38381C301C707E70EE49
:1047B000738E7E0E7C0C300C381C1E780FE00000CF
:1047C00000000000000000000000000000000000E9
:1047D0000000000007C01FC039C001C001C001C0F7
:1047E00001C001C001C001C001C03FFC3FFC00008E
:1047F00000000000000000000000000000000000B9
:10480000000003801FF01838003800180038003806
:10481000007001E0038007001C003FFC3FFC00002B
:104820000000000000000000000000000000000088
:10483000000007801FF0003800380038003007E023
:1048400007F00038001C001C001820F83FE00000B2
:104850000000000000000000000000000000000058
:104860000000000000F001B0033007300E301C30B3
:10487000383070307FFE7FFE0030003000300000A6
:104880000000000000000000000000000000000028
:10489000000000001FF818001800180018001FE0A2
:1048A00000F8001C001C001C003800F01FC00000B5
:1048B00000000000000000000000000000000000F8
:1048C0000000000003F80F001C001800300037F84B
:1048D0003C3C300C300C380C381C1E380FF00000FB
:1048E00000000000000000000000000000000000C8
:1048F000000000003FFC001C001800380070006041
:1049000000E001C001800380070006000E000000E7
:104910000000000000000000000000000000000097
:10492000000003C01FF8381C381C381C1C380FF05E
:1049300007F01C78381C300C381C3C380FF0000095
:104940000000000000000000000000000000000067
:10495000000003801FF03838301C701C700C380CBD
:104960001FFC0FCC001C001800701FE01F8000000F
:104970000000000000000000000000000000000037
:104980000000000000000000000003C003C0018020
:10499000000000000000000003C003C003C00000CE
:1049A0000000000000000000000000000000000007
:1049B0000000000000000000000003C003C00180F0
:1049C000000000000000000003C003C001C001C0DF
:1049D00003800F0000000000000000000000000045
:1049E0000000000000000000003800F001C00700D7
:1049F0001E0038000E00078001C00070003000006B
:104A000000000000000000000000000000000000A6
:104A100000000000000000000000000000003FFC5B
:104A2000000000003FFC3FFC000000000000000010
:104A30000000000000000000000000000000000076
:104A400000000000000000001C000F00038001E0D7
:104A50000078001C007001E003800E000C000000D4
:104A60000000000000000000000000000000000046
:104A700000000FC000F0003800380038003803F0A4
:104A8000038003000300000000000780078000008F
:104A90000000000000000000000000000000000016
:104AA00000E007F80C0C18063006700363F3663359
:104AB000C673CC63CC62CC66CCE6C7FCE000600079
:104AC000700038101FF0000000000000000000001F
:104AD0000000000003C007E006E00E700E700C300E
:104AE0001C3818183FFC3FFC700E600EE0070000F9
:104AF00000000000000000000000000000000000B6
:104B0000000000003FF03838381C381C38383FF0BF
:104B10003FF8381C380C380C381C3FF83FE00000D8
:104B20000000000000000000000000000000000085
:104B3000000000E007FC1E04380038003000700060
:104B400070007000300038003C001F9C07FC000023
:104B50000000000000000000000000000000000055
:104B6000000000003FF03078301C300C300E300E6A
:104B7000300E300E300E301C30383FF03FC0000099
:104B80000000000000000000000000000000000025
:104B9000000000001FF818001800180018001FF887
:104BA0001FF818001800180018001FF81FF8000060
:104BB00000000000000000000000000000000000F5
:104BC000000000001FF818001800180018001FF857
:104BD0001FF818001800180018001800180000002E
:104BE00000000000000000000000000000000000C5
:104BF000000000F007FC1E04380030007000700058
:104C000070FC700C700C300C380C1F1C07FC000082
:104C10000000000000000000000000000000000094
:104C200000000000300C300C300C300C300C3FFC1D
:104C30003FFC300C300C300C300C300C300C0000D1
:104C40000000000000000000000000000000000064
:104C5000000000003FFC0180018001800180018094
:104C6000018001800180018001803FFC3FFC000049
:104C70000000000000000000000000000000000034
:104C8000000000001FF00030003000300030003025
:104C9000003000300030003000701DE01FC0000008
:104CA0000000000000000000000000000000000004
:104CB00000000000381C387038E039C03B803F00ED
:104CC0003F003B8039C038E038703838381C00006D
:104CD00000000000000000000000000000000000D4
:104CE000000000001C001C001C001C001C001C001C
:104CF0001C001C001C001C001C001FFC1FFC0000F2
:104D000000000000000000000000000000000000A3
:104D100000000000381C7C3C6C3E6E6E666E66CEF9
:104D200063C66386618660066006600660060000F2
:104D30000000000000000000000000000000000073
:104D4000000000003C0C3C0C3E0C360C330C338C49
:104D5000318C31CC30EC306C307C303C301C00007D
:104D60000000000000000000000000000000000043
:104D7000000001C00FF81C3C381C700E700E60065D
:104D80006006700E700E700C381C1E780FE000006C
:104D90000000000000000000000000000000000013
:104DA000000000003FF0383C381C380C380C381C30
:104DB00038783FE03800380038003800380000000C
:104DC00000000000000000000000000000000000E3
:104DD000000001C00FF81C3C381C700E700E6006FD
:104DE0006006700E700E700C381C1E780FE001808B
:104DF00001C000FF003C00000000000000000000B7
:104E0000000000003FF0383838183818383838F0CB
:104E10003FC038E0387038383838381C380E000059
:104E20000000000000000000000000000000000082
:104E3000000001E00FF83800380038003C001F8007
:104E400003F00078001C001C001C38783FE00000D4
:104E50000000000000000000000000000000000052
:104E6000000000007FFE0180018001800180018040
:104E700001800180018001800180018001800000AB
:104E80000000000000000000000000000000000022
:104E900000000000300C300C300C300C300C300CAA
:104EA000300C300C300C300C381C1C380FF000006B
:104EB00000000000000000000000000000000000F2
:104EC00000000000E006700E700E381C381C1C1824
:104ED0001C380C300E70066007E003C003C00000F1
:104EE00000000000000000000000000000000000C2
:104EF000000000006006600660066006618663864A
:104F000073C673CE766C366C3C3C3C3C381C00005F
:104F10000000000000000000000000000000000091
:104F200000000000301C38181C380E7007E003C069
:104F300003C007E00E701C381838381C700E0000D3
:104F40000000000000000000000000000000000061
:104F500000000000700E700C381C1C380E700660CB
:104F600007E003C001800180018001800180000012
:104F70000000000000000000000000000000000031
:104F8000000000003FFC001C0038007000E001C081
:104F9000038007000E000C0018003FFC3FFC0000DF
:104FA0000000000000000000000000000000000001
:104FB00007F007F0060006000600060006000600DF
:104FC00006000600060006000600060006000600B1
:104FD0000600060007F000000000000000000000CE
:104FE000000018001C000C000600070003000380EE
:104FF000018001C000C0006000700030003800185F
:10500000000C000000000000000000000000000094
:105010000FE00FE000600060006000600060006072
:105020000060006000600060006000600060006080
:10503000006000600FE000000000000000000000C1
:105040000000000003C006C006600C301818301CB9
:105050000000000000000000000000000000000050
:105060000000000000000000000000000000000040
:105070000000000000000000000000000000000030
:105080000000000000000000000000000000000020
:1050900000000000FFFF0000000000000000000012
:1050A00000001E000380000000000000000000005F
:1050B00000000000000000000000000000000000F0
:1050C00000000000000000000000000000000000E0
:1050D000000000000000000000001FF01038001C5D
:1050E000001C0FFC1C1C381C381C3CFC1FDC000086
:1050F00000000000000000000000000000000000B0
:10510000000038003800380038003BF83E1C3C1CDA
:10511000380C380C380C380C381C3C781FE0000078
:10512000000000000000000000000000000000007F
:105130000000000000000000000007F80E001C0046
:1051400038003800380038001C000F1807F800003D
:10515000000000000000000000000000000000004F
:105160000000001C001C001C001C0FFC1C1C381C38
:10517000301C301C301C301C383C1CFC0F9C0000C8
:10518000000000000000000000000000000000001F
:10519000000000000000000000000FF01C38381C68
:1051A000300C3FFC3000300038001E0C07FC0000C3
:1051B00000000000000000000000000000000000EF
:1051C000003C01FE03800300030003007FFC7FFC22
:1051D00003000300030003000300030003000000BA
:1051E00000000000000000000000000000000000BF
:1051F000000000000000000000000FFE1C383818FE
:10520000381818381FF03B8030003FF01FFC300E7C
:10521000700E381C1FF800000000000000000000A5
:10522000000038003800380038003BF83E383C1C9D
:10523000381C381C381C381C381C381C381C000022
:10524000000000000000000000000000000000005E
:10525000018003C003C0000000001FC001C001C0E6
:1052600001C001C001C001C001C001C03FFC00007D
:10527000000000000000000000000000000000002E
:10528000002000700070000000003FF0007000700F
:10529000007000700070007000700070007000708E
:1052A000007020E03FC0000000000000000000008F
:1052B00000001800180018001800183C187018E0BA
:1052C0001B801F001B8019E018701838181C000084
:1052D00000000000000000000000000000000000CE
:1052E00000001FC001C001C001C001C001C001C059
:1052F00001C001C001C001C001C001C03FFC0000ED
:10530000000000000000000000000000000000009D
:10531000000000000000000000006F3C79EE71CE3C
:10532000718E718E718E718E718E718E718E000084
:10533000000000000000000000000000000000006D
:10534000000000000000000000003BF83E383C1C5C
:10535000381C381C381C381C381C381C381C000001
:10536000000000000000000000000000000000003D
:10537000000000000000000000000FF01C3C381C82
:10538000700E700E700E700C381C1E780FE000004E
:10539000000000000000000000000000000000000D
:1053A000000000000000000000003BF83E1C3C1C18
:1053B000380C380C380C380C381C3C783FE038007E
:1053C0003800380038000000000000000000000035
:1053D000000000000000000000000FFC1C1C381C36
:1053E000301C301C301C301C383C1CFC0F9C001C3A
:1053F000001C001C001C0000000000000000000059
:105400000000000000000000000019F81F1C1C0C28
:10541000180E1800180018001800180018000000D6
:10542000000000000000000000000000000000007C
:10543000000000000000000000000FF81C00180031
:105440001E000FC001F80018001818381FF00000E7
:10545000000000000000000000000000000000004C
:10546000000000000600060006007FFC06000600A3
:1054700006000600060006000700078401FC000085
:10548000000000000000000000000000000000001C
:1054900000000000000000000000381C381C381C10
:1054A000381C381C381C381C383C1CFC0FDC000035
:1054B00000000000000000000000000000000000EC
:1054C00000000000000000000000700C381C3818BC
:1054D0001C380C300E70066007E003C003C00000EB
:1054E00000000000000000000000000000000000BC
:1054F00000000000000000000000600660066186F9
:10550000738E73CC33CC366C366C3C3C3C3800002C
:10551000000000000000000000000000000000008B
:1055200000000000000000000000381C1C380E7055
:1055300007E003C003C007E00E701C38381E0000EF
:10554000000000000000000000000000000000005B
:1055500000000000000000000000700C381C38182B
:105560001C380C300E70066007E003C003C00380D7
:1055700007000E007C00000000000000000000009A
:10558000000000000000000000001FF8003800705C
:1055900000E001C0038007000C001FFC3FFC00007E
:1055A00000000000000000000000000000000000FB
:1055B000007801F8038003800380038003800300E8
:1055C0003F003E00030003800380038003800380CC
:1055D000038001C000F8000000000000018001808D
:1055E00001800180018001800180018001800180B3
:1055F00001800180018001800180018001800180A3
:105600000180018001800000000000000000000017
:105610001E001F80018001C001C001C001C000C088
:1056200000FC007C00C001C001C001C001C001C07D
:1056300001C003801F000000000000000000000007
:1056400000000000000000000000000000001C003E
:105650003F0671CE60FC000000000000000000006A
:10566000000000000000000000000000000000003A
:10567000000000000000000000000000000000002A
:10568000000000000000000000000000000000001A
:10569000000000000000000000000000000000000A
:1056A00000000000000000000000000000000000FA
:1056B00000000000000000000000000000000000EA
:1056C00000000000000000000000000000000000DA
:1056D00000000000000000000000003C00003C0052
:1056E000003C00003C00003C00003C00003C00008E
:1056F0003C00003C00003C00003C00003C00003C42
:1057000000003C00000000000000003C00007E00A3
:10571000003C00000000000000000000000000004D
:105720000000000000000000000000000000000079
:105730000000000000000000000003C3E003C3E01D
:1057400003C3C003C3C003C3C003C3C003C1C000BD
:105750000000000000000000000000000000000049
:105760000000000000000000000000000000000039
:105770000000000000000000000000000000000029
:105780000000000000000000000000000000000019
:105790000000000000000000000000000000000009
:1057A00001E0E001C0E001C0E001C0E03FFFFE3FDA
:1057B000FFFE03C1C00381C00381C00381C07FFF1E
:1057C000FC7FFFFC078380070380070380070380BB
:1057D000070780000000000000000000000000003B
:1057E00000000000000000000000000000000000B9
:1057F00000000000000000000700000F00000E0085
:1058000001FFF007FFF01F0E001E1E001E1C001EF1
:105810001C000FDC0007FC0000FF80003FF0003898
:10582000F800387800783C0070783071F83FFFE07D
:105830001FFF0000E00000E00000E00000000000AA
:105840000000000000000000000000000000000058
:10585000000000000000000000000F800F3FE01E6D
:1058600078703C7070707070E07071C03FE3801FA2
:10587000C700000E00001C0000780000F0F001E7F7
:10588000FC03CF0E078E0E0F0E0E1E0E0E3C07BC35
:105890007003F8000000000000000000000000009D
:1058A00000000000000000000000000000000000F8
:1058B0000000000000000000000000000001FF00E8
:1058C00007FF800F03C00F03C00F03C00F0780073F
:1058D0009F0003FE0003F0000FF83C3E7C3C3C1FA1
:1058E0003C780FF87807F87C01F03E03F81FFFFCC6
:1058F00007FE1F0000000000000000000000000084
:105900000000000000000000000000000000000097
:1059100000000000000000000000003E00003C000D
:10592000003C00003C00003C00003C00003C00004B
:105930000000000000000000000000000000000067
:105940000000000000000000000000000000000057
:105950000000000000000000000000000000000047
:105960000000000000000000000000000000000037
:10597000000000000000000000800001C00007805F
:10598000000F00001E00003C0000780000F0000046
:10599000E00001E00001E00001C00003C00003C01E
:1059A0000001C00001E00001E00000F00000F00094
:1059B000007800003C00001E00000F000007C0003F
:1059C00001C0000000000000000000000000000016
:1059D0000000000000000000000003C00001E00023
:1059E00000F000007C00003E00001E00000F0000E0
:1059F00007800007800003800003C00003C000038D
:105A0000C00003C0000380000780000780000F0073
:105A1000001E00003C0000780000F00001E00003E0
:105A200080000000000000000000000000000000F6
:105A300000000000000000000000001C00001C002E
:105A40000018000F18F007DBE0007F0000FF0007E0
:105A5000DBE00E1870001800001C00001C000000A5
:105A60000000000000000000000000000000000036
:105A70000000000000000000000000000000000026
:105A80000000000000000000000000000000000016
:105A90000000000000000000000000000000000006
:105AA000000000000000000000003C00003C00007E
:105AB0003C00003C00003C00003C003FFFFC3FFF7E
:105AC000FC003C00003C00003C00003C00003C00AE
:105AD00000000000000000000000000000000000C6
